:020000022000DC
:1060000000000120756302005D6302005F6302000F
:106010006163020063630200656302000000000028
:1060200000000000000000000000000067630200A4
:1060300069630200000000006B6302006D630200F0
:106040008D8302006F630200798602006F63020095
:106050006F6302006F630200F58402006591020025
:106060006F6302000D9602006F6302006F6302000F
:106070006F6302006F6302006F6302006F630200D0
:106080006F630200D57402006F6302006F63020049
:106090006F6302006F6302006DAB02006F6302006A
:1060A0006F6302006F6302006F6302006F630200A0
:1060B0006F6302006F630200000000000000000038
:1060C0006F6302006F6302006F6302006F63020080
:1060D0006F6302006F6302006F6302000000000044
:1060E00000000000000000000000000000000000B0
:1060F00000000000000000000000000000000000A0
:10610000000000000000000000000000000000008F
:10611000000000000000000000000000000000007F
:10612000000000000000000000000000000000006F
:10613000000000000000000000000000000000005F
:10614000000000000000000000000000000000004F
:10615000000000000000000000000000000000003F
:10616000000000000000000000000000000000002F
:10617000000000000000000000000000000000001F
:10618000000000000000000000000000000000000F
:1061900000000000000000000000000000000000FF
:1061A00000000000000000000000000000000000EF
:1061B00000000000000000000000000000000000DF
:1061C00000000000000000000000000000000000CF
:1061D00000000000000000000000000000000000BF
:1061E00000000000000000000000000000000000AF
:1061F000000000000000000000000000000000009F
:10620000354936480A1A02D0072291438D4634494F
:1062100034480A1A06D00722914381F309880222E2
:1062200082F3148830483149314A00F044F831484B
:106230003149324A00F03FF831483249324A00F0E1
:106240003AF832483249334A00F035F83248334997
:10625000334A00F030F833483349344A00F02BF821
:1062600033483449344A00F026F83448344900228F
:1062700000F02CF833483449002200F027F8334866
:106280003349091A082902DB002202604160314AC1
:1062900090471F481F49884205D00268043003B464
:1062A000904703BCF7E700208646EC46002000211B
:1062B000294A9047FEE7884207D0521A05D0037852
:1062C00001300B700131013AF9D17047884202D098
:1062D00002700130FAE770470000012000E0002062
:1062E0000000012000000120DCC00200F02200209C
:1062F00040230020D0630200D06302006EB1020090
:10630000DCC00200F0220020F022002074B2020063
:1063100074B2020074B2020074B2020074B20200DD
:1063200074B2020074B2020074B20200DAC0020059
:106330002CC10200402300204023002040230020E5
:10634000702C0020702C0020702C0020702C00205D
:10635000704C00209D630200F1990200FEE7FEE709
:10636000FEE7FEE7FEE7FEE7FEE7FEE7FEE7FEE705
:1063700000F002B8FFF7FCBF0F484FF00701884359
:1063800085460E4880470E48016841F4700101605F
:10639000BFF34F8FBFF36F8FFFF732BF09480A4932
:1063A0000A4A884207D0521A05D0037801300B7090
:1063B0000131013AF9D1704700000120557E0200F9
:1063C00088ED00E074B20200F0220020F0220020EC
:1063D000F0B595B01D46164608460C4601F02CFC5B
:1063E0001A9B0D93CDE9086500252B46082205A9C7
:1063F00020460A958DF82C500C9501F03AFC079B2D
:106400000293069B03939DF814308DF8115003F00E
:106410000302012A1DD1BDF81420059DC3F3C20358
:10642000C2F383168DF81030B20008230EA920465F
:1064300001F01FFCC5F3952508AB0093324602AB73
:106440000EA9284600F0E4FB204601F0F9FB15B048
:10645000F0BD022AF8D1BDF81650C3F3C203C5F34C
:1064600089158DF810300827082D2E4628BF0826DC
:106470003B4632460EA9204601F0FBFBAD1B08ABA4
:1064800002AA31460EA8374400F026FC002DEBD1BD
:10649000DAE70000014B01221A70704781230020C7
:1064A0007047000070B5124D06460FCD88B06C469F
:1064B0000FC495E80F00002E84E80F004FF0FF3363
:1064C0004FF00602CDE90023CDE90233094A0A481C
:1064D0004FF0EB7308BF00226946069301F0EEFE11
:1064E00008B100F097FC054B1E7008B070BD00BFEE
:1064F00074B2020095640200F022002040230020C4
:1065000007B5044B0093044A4023FFF761FF03B033
:106510005DF804FB1D6502004123002038B50D4BDA
:106520000D4D002018700D4804782D5DD2B21C4628
:1065300065B1043002F0F6FC08B100F06BFC084BCA
:106540001A7812B12378002BFBD038BD0C3002F042
:10655000C1FAF1E781230020102A0020F022002058
:106560004023002008B50848084A0378D35C3BB1B3
:10657000043002F061FCBDE808400020FFF792BF44
:106580000C3002F045FAF6E7F0220020102A002035
:106590000120FFF787BF000008B5FFF7F9FF0448A7
:1065A000042100F09DFA034B01225A7108BD00BF7F
:1065B00064B2020004230020037813F0040216D012
:1065C00003F00303012B03D0022B09D001207047F5
:1065D0000A6800880232C0F3831002440A60F5E7BB
:1065E0000B684288023303EB92130B60EEE7104610
:1065F000704700002DE9F04F87B000230446861C49
:106600000DF107000F4615468DF8073000F0F2FD3A
:10661000454801683960D0E90132134401335B1AFF
:10662000824600F21C4700F5836900F21448B34229
:106630001CD30020002D73D004F00F039B0143F006
:10664000050363F30F00DAF80020DAF8083013408E
:10665000033316444AF823009DF80700CAF8006087
:1066600000F0ECFD012007B0BDE8F08F01213846B5
:1066700001F00DF8484601F022F8404601F01FF8FD
:10668000DAF80400DAF808B0029000EA0B000330F0
:106690000AEB800002A9FFF78FFF029B50BB0BEAB9
:1066A00003020AEB820203F1020CD2680392013367
:1066B00003EA0B0B0AEB8B0B02F00302012ADBF857
:1066C0000C10CDF808C023D0022A16D083464046CD
:1066D00000F0F8FF10B1029BCAF804305946384662
:1066E00000F0D5FFDAE901231344DAF80020013382
:1066F0009B1A9CE70BEA0300C9E7BDF80E30C3F311
:10670000891303334FEA114B0CEB93030293DEE73B
:10671000BDF80C30C3F383134FEA114B6344F5E724
:10672000A40544F006008EE7542400200B4B0C48CF
:10673000FF2210B59A600022C3F81824C3E9002292
:10674000C3F8142483F8202401F02FFA044610B96A
:10675000044801F0D7FA204610BD00BF54240020A1
:10676000C0B10200C8B2020030B50A4C71B10A4A89
:106770000A49121BD20800239A4201D1002030BDE1
:1067800031F82350854202D00133F5E7034654F82F
:106790003300F4E7D4B1020064B20200F02200201A
:1067A000094B013903EBC000032909D8DFE801F0E8
:1067B0000A02040604207047007970474079704748
:1067C0000020704702207047D4B10200034BD3E988
:1067D0000030C31A58425841704700BF542400206B
:1067E0002DE9F04387B0FFF7F1FF0646002840F09F
:1067F000F9807D4DC5F81804BFF34F8F6B68AC6806
:1068000002932340033305EB830002A9FFF7D4FE74
:10681000029B18B1D5F81824002A5FD004EA0302BD
:10682000991C013305EB8202234005EB8303D268F8
:10683000DB68049302F00303022B0392029160D100
:10684000BDF80E306948C3F38917502FB84628BFEA
:106850004FF0500868F38F1308F10801ADF80E30BF
:1068600001F0BBF90646002800F0A78001F0E4F92A
:106870000023082203A9304601F0F1F9029924EA25
:1068800001020132B8EB820F4FEA820332D95FFA7C
:1068900088F85BB32140DCB2A8EB040803315FFA4F
:1068A00088F9A046524C05EB810108234246304648
:1068B00001F0D5F934B108F108034A4621463046C3
:1068C00001F0CDF9029B033703EB97070297D5F848
:1068D0001834002B49D1D5F8104459E02A689A425F
:1068E0008FD86A60304607B0BDE8F08340491C4647
:1068F0009946DAE70C40E11C0823424605EB81018A
:10690000DDE7012B59D1BDF80C303848C3F38311B2
:10691000062928BF062161F3891302318900ADF8E9
:106920000C3001F05AF90646002846D001F084F9EF
:106930000023082203A9304601F091F90027BDF891
:106940000C20C2F38312BB00974203F10803BED2AE
:1069500002994A1C21400331029205EB8101042275
:10696000304601F07CF90137E9E7304601F068F97B
:10697000FFF72CFF80F00100C6B2B3E7E3685B7954
:1069800023B1236831461B6820469847E3681C689A
:10699000002CF3D1304601F053F90DF107008DF8CA
:1069A000074000F027FCD5F818340BB9029B6B6048
:1069B0009DF8070000F042FCDAE7D5F8104454B91E
:1069C0000C4B0D480D49C01AC008000440F00200ED
:1069D00000F062F8CCE7236820469B689847E3689C
:1069E0001C68ECE700267DE754240020C0B10200BB
:1069F00060240020D4B1020014B20200B1B202003F
:106A00002DE9F74F224D04460F46924601A9012277
:106A10001846D5F808909B46FFF7ECFD20B3019E81
:106A20004FF00008B21CD84508EB020126D11948E6
:106A3000002100F0FDFD80F31000000440EA144046
:106A4000E400731C04F0380403EA090306EA0906AB
:106A500044F0010405EB8303033644EA881444EA56
:106A60008724D86045F8264095F820341BB1FFF7FD
:106A7000B7FE0028FBD103B0BDE8F08F09EA0101A1
:106A800005EB81015AF82830CB6008F10108CAE70C
:106A9000542400207028002000231A46FFF7B0BFBE
:106AA00007B50123019201AAFFF7AAFF03B05DF821
:106AB00004FB07B5CDE9002302236A46FFF7A0FFD8
:106AC00003B05DF804FB1FB5CDE90123069B0393DA
:106AD00001AA0323FFF794FF05B05DF804FB000053
:106AE00030B50F49D1F8102403460020144634B9BC
:106AF000DC6820714AB9C1F81034226030BDE46806
:106B00002579854206D02468F1E7D26811682160B2
:106B10001360F3E701300A28E8D14FF0FF30EDE7CA
:106B200054240020094A38B50123D2F8104482F8D1
:106B300020341D4604B938BDE3685D7123682046E2
:106B40005B689847E3681C68F4E700BF54240020A2
:106B500007B503460846197A052911D05B7A2BB18F
:106B6000094A0A49019000F010FE01980849019075
:106B700000F00BFE019803B05DF804EB00F0FABDE5
:106B8000002AF8D0F2E700BFD4B20200D9B2020066
:106B9000F9B2020030B5C38885B004460D4633B162
:106BA000144A00921449154A284600F0EEFD217A55
:106BB00005291DD0637A4BB1A088FFF7F1FD104B7A
:106BC000104953F82020284600F0DFFD227A0E4BB2
:106BD000A08853F8222003920021FFF7C5FD039AF5
:106BE0000A490346284605B0BDE8304000F0CDBD57
:106BF00005B030BDD4B20200E4B20200DCB2020043
:106C000060B30200D9B2020084B30200FCB20200F9
:106C10002DE9F04385B01F460C9D002395F80C909C
:106C20002B7306460C46904629463846FFF7B2FFBE
:106C3000B8F1060F09D8DFE808F00412181F28334E
:106C400040003146284600F0A0FD00222946384683
:106C5000FFF77EFF85F80C9005B0BDE8F083226851
:106C60003146284600F091FDEFE7D4E90023314694
:106C7000284600F08AFDE8E7A36800933146D4E98E
:106C80000023284600F081FDDFE7E3680193A36855
:106C900000933146D4E90023284600F076FDD4E77E
:106CA00023690293E3680193A36800933146D4E912
:106CB0000023284600F069FDC7E763690393236951
:106CC0000293E3680193A36800933146D4E900235B
:106CD000284600F05AFDB8E708292DE9F74F80460D
:106CE0000E4617461C463CD8002593F80C901D73A1
:106CF00019461046FFF74EFFDFF888A0DFF888B08E
:106D0000AE4231D918F805205946204600F03DFD25
:106D10000135082DF4D11949194DDFF870A020462E
:106D200000F033FD4FF0000B5E4522D918F80B2020
:106D30007E2A05D81046019204F088F9019A00B91C
:106D40002E225146204600F020FD0BF1010BBBF135
:106D5000080FE9D1012221463846FFF7F9FE84F8F1
:106D60000C9003B0BDE8F08F5146204600F00DFDB9
:106D7000CEE72946204600F008FDE6E710B3020002
:106D80000EB302000CB3020006B3020012B30200FD
:106D900070B5084D084E00242B789C4201D300208A
:106DA00070BD230132680121D05C01F03DFB01344C
:106DB000F2E700BF102900204029002073B5114DD3
:106DC000114E00242B789C4214D300230DF10700B0
:106DD0008DF8073000F00EFA0C4B00210020C3E9BB
:106DE00000019DF8070000F029FA094800F029F990
:106DF00002B070BD23013268D05C01F059FB013450
:106E0000E0E700BF10290020402900203829002099
:106E1000182900201FB50021039001AA44F20100A7
:106E2000CDE9011100F004F805B05DF804FB0000A5
:106E300010B572B6FFF776FEFFF7D2FC0028FBD143
:106E4000104B114C1149E41AE408240444F00100E9
:106E5000FFF722FE0E4B1B68DB0700D500BE0D4975
:106E600044F00200FFF718FEBFF34F8F0A490B4BA7
:106E7000CA6802F4E0621343CB60BFF34F8F00BFD8
:106E8000FDE700BFD4B1020014B20200A3B30200B8
:106E9000F0ED00E0AFB3020000ED00E00400FA0501
:106EA000D0E90223D1E90201994208BF90422CBFE8
:106EB000012000207047000008B50B4800F0F5FAEB
:106EC0000A4B0B49D3E900231218D1E9000143F121
:106ED00000038B4208BF824203D212F1807243F159
:106EE00000031046194608BD0C2300204829002045
:106EF000C029002037B505460C460A4801A900F014
:106F000006FB60B10570446001A9064800F029FB4A
:106F100018B1054800F0CEFA002003B030BD0420BF
:106F2000FBE700BFAC2900200C23002038B5184B2C
:106F30001B78044613B90025284638BD0028FAD02E
:106F4000037F03F0FF05002BF5D0FFF7B5FFD4E971
:106F50000223994208BF904214D3236903B92377CF
:106F6000D4E90530984721690029E4D0237F03F054
:106F7000FF05002BDFD0D4E90223521843F10003B0
:106F8000C4E902230348214600F0DBFED4E700BF3A
:106F900050290020CCB3020013B5114B11491868D9
:106FA000019008231048582200F09EFA044698B930
:106FB0000E4A0F4801A900F065F9044660B90C4873
:106FC000012100F055FA01230A4A0948194600F048
:106FD000B7F9094B01221A70204602B010BD00BF5C
:106FE000C6B3020054290020AC2900205D700200C5
:106FF0000C230020FFFF7F00502900203AB10368D6
:107000005A614A1E514251411961002070470720C0
:10701000704738B5037F04460D4683B98261FFF798
:107020004BFF2369401941F10001C4E9020103B19A
:10703000256121460020BDE83840FFF75BBF0020F6
:1070400038BD0023014603770120FFF753BF00003E
:10705000014800F02ABA00BF0C2300202DE9F04FB0
:1070600085B0804600F00CFA40B15A4AD2E90031AE
:1070700013F1807341F10001C2E900310021404663
:1070800000F00DFA38B1544E336823B13068FFF781
:107090004DFF002333600121404600F000FA20B18B
:1070A000FFF70AFF4D4BC3E900014D484A4F4D4ED3
:1070B000DFF8389103A900F064FA002845D1DFF821
:1070C0002491454EDFF828A1484600F050FE336871
:1070D000002875D07BB13368D0E90201D3E90223DF
:1070E000994208BF90422DD233681B7F1BB1316893
:1070F000484600F026FE484600F033FED0E902B3D1
:1071000007460193FFF7D8FE019BBBEB000463EB3E
:107110000105012C75F1000345DBB4F5350F40D3B3
:10712000FFF796FF304A02444FF496030021504681
:1071300000F026F900283ED1336813B9404600F02C
:10714000F7F8376005B0BDE8F08F0378012B1DD04C
:10715000022B09D14FF0000A304600F002FE002851
:1071600034D080F81CA0F7E73BB941680B7F23B906
:1071700001230B77304600F0E4FD03A9184800F026
:107180002BFA03A9164800F0FCF996E741683B6822
:10719000994202D100233B60EFE7304600F0EAFD60
:1071A000EBE7BA68C0E70021504600F06EF93846B8
:1071B000FFF7BCFE01E00D28F9D00023336083E720
:1071C000002BBFD1404600F0B7F8BBE7012389F898
:1071D0000030D2E748290020C8290020C02900201B
:1071E000AC290020CCB30200FFFFB40050290020DE
:1071F0000C23002070B5EFF3108672B60C4A946829
:1072000001239CB993600B4B0B4DD3F880102940A0
:107210001160C3F88050D3F8841051604FF0FF32F2
:10722000C3F88420047006B962B670BD0370FAE733
:10723000CC29002000E100E0FC06FFBD084B9A6865
:1072400010B55AB150B9EFF3108172B6054A1C68F7
:1072500014605C685460986001B962B610BD00BFEC
:10726000CC29002000E100E0435882B03BB100236C
:10727000435043580193019B012002B070471846C8
:10728000FBE70000F8B5224B4679224C43F8262054
:10729000214A224B9B1A04EBC602DB0812791B041D
:1072A000F70032B143F002001D49FFF7F5FB08205B
:1072B000F8BD02680D88C2F8085590F904500279AB
:1072C0008978002DADBF05F1604CDFF85CC002F09D
:1072D0000F0E0CF5614C4FEA4111C9B2B4BF0CF866
:1072E0000E108CF800136D090121DFF840C002F088
:1072F0001F0201FA02F24CF82520E21944F8360088
:10730000117143F003000749FFF7C6FB0020CFE7E8
:10731000E0290020D8290020D4B1020024B20200C4
:10732000D8B30200FAB3020014ED00E000E100E07F
:10733000036801221A607047036801225A6070478F
:1073400073B501F15005AD000068ADB24FF4803463
:107350008C400026C0F80843C0F84843465101F568
:10736000A8714559019522F07F42019D40F82120E6
:10737000C0F844430BB1C0F8044302B070BD000034
:107380002DE9F74F0D4622F07F4402684FF4803715
:1073900005F150068F408046B60002EB8500C2F82A
:1073A0004873B6B2C2F80873D2F8041599464FF084
:1073B000000BD0F84035C0F8401542F806B05B1A13
:1073C0009259009223F07F43012B009A4FEA850ADD
:1073D0000CD1264B4FF4806043F001039847D8F856
:1073E000003043F806B09B590193019BD8F8001078
:1073F000D1F80465C1F84473A31B23F07F43012B2C
:107400001CD11A4B05F5A875013443F0010341F86E
:1074100025404FF480609847D8F80030D3F8043501
:107420009E4209D1D8F800300020C3F84473C3F855
:10743000047303B0BDE8F08F0D20FAE78A44C9F168
:10744000FF13CAF84045D1F80405221A013A22F088
:107450007F4203F57F439342EED3002AE2D1013409
:10746000CAF84045D1F804359842DAE710B4020072
:1074700003680222C3F8442309B1C3F80423704708
:1074800000684FF48271FFF7EFBE4FF4803303FAC8
:1074900001F10368C3F84813C3F80813704750316B
:1074A0008900006889B2FFF7DFBE0368D3F80405DE
:1074B0007047000090F9043001215A0903F01F03BE
:1074C00001FA03F34032024941F82230704700BF0D
:1074D00000E100E0024B034A1B681068184700BF38
:1074E000E0290020D829002010B561B1B2FBF3F4E7
:1074F00003FB1424A4B244B9C0E90014846082815F
:10750000C381204610BD0E20FCE70920FAE737B5FD
:1075100050E8013F9DB2C48925448489A54228BF13
:107520002D1B0489A54202BFBFF32F8F002207E065
:10753000C5EA030540E80154002CE9D14FF00102EF
:107540008DF803200193019B9DF803200B6002F04E
:10755000FF0322B10B880068184403B030BD184601
:10756000FBE70A884B889A4209D150E8012FC2EA0A
:10757000024240E80123002BF7D101207047002090
:10758000704737B550E8023F1FFAA3F5C488A542FB
:1075900002BFBFF32F8F00220DE0C48925448489E8
:1075A000A54228BF2D1BC3EA054540E80254002C24
:1075B000E8D14FF001028DF803200193019B9DF863
:1075C00003200B6002F0FF0322B14B8800681844CF
:1075D00003B030BD1846FBE70A884B889A4209D1B0
:1075E00050E8022FC2EA224240E80223002BF7D1E2
:1075F000012070470020704701F01F024B09012154
:10760000914000EB830000F01EB801F01F0301223F
:107610009A404B0900EB8300D14300F02CB84B0992
:1076200001F01F0150F82300C84000F0010070472E
:1076300010B5034653E8000F0A4643E8002494F0CF
:10764000000FF7D110BD10B5034653E8002F42EAF2
:10765000010043E8000494F0000FF6D110BD10B50E
:10766000034653E8000F00EA010243E8002494F0C7
:10767000000FF6D110BD10B5034653E8002F02EA03
:10768000010043E8000494F0000FF6D110BD10B5DE
:10769000034653E8002F02EB010043E8000494F096
:1076A000000FF6D110BD10B5034653E8002FA2EB32
:1076B000010043E8000494F0000FF6D110BD012151
:1076C000FFF7C1BF0021FFF7CABF10B590B1D0E9E5
:1076D000012301689B1ADBB20A60013BDBB2FF2B7E
:1076E000026802D10020107110BD11684C1C14609A
:1076F0000B70F2E70E20F7E737B5054600240DF1D1
:1077000007008DF80740FFF775FD2A686B68116860
:1077100099420ED9481E106011F8014CEB68298A75
:1077200001FB0434AB6811791B1ADBB2994238BFF4
:1077300013719DF80700FFF781FD204603B030BDAF
:1077400037B5054600230DF107000C468DF80730CC
:10775000FFF750FD2A681368591C1160E968641A24
:10776000298AB4FBF1F41C709DF80700FFF766FD51
:1077700003B030BD826810B504462AB14369016880
:10778000006998470023A36010BD0EB403B50399A8
:1077900021B104AB01AA019300F076F802B05DF8C4
:1077A00004EB03B070470A2938B504460D4602D1F0
:1077B0000D21FFF7F8FFA3682268591CA160D5547A
:1077C000D4E901329A4204D32046BDE83840FFF79D
:1077D000D1BF38BD2DE9F84F9846DDE90A4315467B
:1077E00082460F460A464FF00109AA420FD2C14510
:1077F00038BFC14613F0010B01D16CB9002401263A
:10780000B8F1010F1BD908F1FF386E43F8E709F111
:107810000109B2FBF5F2E8E79B070ED5B8F1000FBE
:107820000CBF30262026A145E9D2013C3146504606
:10783000FFF7B9FF002CF6D1E0E72026F3E7B7FB0E
:10784000F6F39D42E1D9DFF83C80B7FBF6F35046F2
:1078500018F8031006FB1377FFF7A5FF3346AB427A
:10786000B6FBF5F6F1D2BBF1000F02D00CB1A14589
:1078700001D3BDE8F88F20215046013CFFF793FF6C
:10788000F4E700BF16B402002DE9F74F054617468E
:107890008846002900F0428118F8011B49B92B7B6A
:1078A000002B00F03B81284603B0BDE8F04FFFF706
:1078B00061BF252940F0B780002698F800302D2BB5
:1078C000424608F1010823D0302B24D02B2B25D0A1
:1078D00000242A2B02F1010123D13B681A1D1B68E9
:1078E0003A601C440A4613782E2B26D101324FF001
:1078F000000A104610F8011BA1F1300CBCF1090F71
:107900001DD80A2303FB0A13A3F1300A0246F0E74D
:1079100046F00106D1E746F00206CEE746F004063F
:10792000CBE711F8013CA3F130000928DBD80A228B
:1079300002FB0434303C0A46CBE74FF0000A12F851
:10794000011B01F0FB0068289046F8D0782909D87F
:107950006F290CD8632962D022D8252963D05829F1
:1079600000F0888098F80030002B95D197E77039A7
:107970000829F7D801A353F821F000BFF77A0200D5
:107980006579020065790200857A02006579020056
:10799000637A02006579020065790200757A020057
:1079A000642901D06929DDD13A68D2F80090111D0F
:1079B00089EAE9723960A2EBE9724FF0010B092AFA
:1079C00035DCD34538BFD3462CB1B9F1000F01DB0C
:1079D000720700D5013CB30702D5BAF1000F03D0FE
:1079E000F00701D44CBB0024B9F1000F2DDAC9F126
:1079F00000092D212846FFF7D6FE06F00302022AD1
:107A000004D1BAF1000F01D11CBB0024CDE900461E
:107A100053460A2249462846FFF7DCFEA2E73B68A8
:107A20001A1D19783A602846FFF7BDFE9AE70A2327
:107A30000BF1010BB2FBF3F2C1E7A345D4D2202135
:107A40002846013CFFF7AFFECCE77107D5D52B21C7
:107A5000D0E7A345DAD230212846013CFFF7A3FE48
:107A6000D2E73968CDE900460A1D3A6053460A223A
:107A70000968D0E739680A1D3A60CDE900465346E7
:107A80001022F5E73B681A1D3A6016F00106D3F89C
:107A9000009028D1B9F1000F03D0484603F037FB1E
:107AA0000646B44200D904BB09F1FF3919F8011F99
:107AB00000293FF457AF2846FFF775FEF6E7284642
:107AC0000136FFF770FE19F806100029F7D1A6421B
:107AD000BFF448AF002C3FF445AF20212846013CBD
:107AE000FFF761FEF3E70026EDE720212846013C81
:107AF000FFF759FED5E73B681A1D3A60302128464A
:107B00001C68FFF750FE78212846FFF74CFE002244
:107B10000823CDE90032214610227CE703B0BDE8FE
:107B2000F08F00BF2DE9F84FB0F806A04579D2F8E4
:107B300000B09DF828900AFB05F5043D88460BEB44
:107B40000301A94203F1040488BFA5EB030BB4FBB6
:107B5000FAF607460AFB1644C2F800B04EB9AAEB83
:107B600004055D4528BF5D46BBF1000F04D1BDE8AB
:107B7000F88F3F68013EF1E7043408EB06003C440F
:107B80002A46B9F1000F0DD02146ABEB050B03F0EF
:107B900062FADA452E443F6855464FF0000428BF8C
:107BA0005D46E1E701462046EFE7FFF78EBDF8B5F9
:107BB00046790146721E0546002393422D6803D381
:107BC0000024A64202D8F8BD0133F6E70F68284624
:107BD000FFF7B6FD01343946F3E72DE9F843068A8D
:107BE000CD1C0746FFF788FD043E35440446B5FB2F
:107BF000F6F5F0B14FF48073EDB28380C680013D9D
:107C0000076081464FF00008A84512D23846FFF7BA
:107C100073FD064648B163790133637108F10108C9
:107C2000C9F8000007608146EEE72046FFF7BFFF76
:107C300034462046BDE8F88301210430FFF727BD14
:107C400010B5012104460430FFF72DFD10F0FF0FA1
:107C500004D12046BDE81040FFF7A9BF10BD1FB5F5
:107C600003920022009203AAFFF75CFF05B05DF8C3
:107C700004FB1FB503920122009203AAFFF752FFF3
:107C800005B05DF804FB41DF70470000064B10B5FE
:107C900000241C70054B1C60BFF35F8F044905482E
:107CA00000F039F8204610BDEC290020F029002012
:107CB00030B40200E429002007B500230DF10700CD
:107CC0008DF80730FFF796FAF1EE103A23F09F0394
:107CD000E1EE103ABFF35F8F094B4022C3F88421D5
:107CE0009DF80700FFF7AAFA02F026FF20B1FFF780
:107CF000CAFF03B05DF804FB20BF40BF20BFF8E718
:107D000000E100E0836800225A60C3E904229A601F
:107D1000DA601A6070470B684A684360934208BF94
:107D20000023016008BF43607047436843B10268A5
:107D3000916852680B449342436004BF0023436040
:107D4000704770B5446806460D46206818B1B368A0
:107D50002946984718B923682B60256070BD2468B0
:107D6000F3E74368186808B102681A60704743680F
:107D7000186870474368186800B97047884203D193
:107D800002681A600120704703460068F4E70000AB
:107D900010B50D49A1F59472914201D800200FE071
:107DA0008C1AE30F03EBE4035B1002EBC30452F8FD
:107DB0003330834205D802D204F10802ECE7606850
:107DC00010BD2146E8E700BF3CB9020008B5FFF747
:107DD000DFFF024B002808BF184608BDFFB70200AE
:107DE0000C4B1B78062B10D10B4B1B681A070CD1C0
:107DF0000A4B186800F0F003302B08D000F0E000C8
:107E0000A0F14003584258417047002070470120BC
:107E1000704700BFE00F00F0E40F00F0E80F00F043
:107E2000094B1B78062B0CD1084B1B681A0708D18D
:107E3000074B186800F0F000A0F130035842584199
:107E400070470020704700BFE00F00F0E40F00F023
:107E5000E80F00F008B5FFF7C3FF28B17D4B7E4A5D
:107E60001B68C3F304231360FFF7DAFF10B17B4BE9
:107E70007B4A1A60FFF7B4FF28B17A4B7A4A1B6835
:107E8000C3F342331360FFF7CBFF20B1774AD368C7
:107E900023F08073D360FFF7A3FF40B14FF080431E
:107EA0000022C3F80C21C3F81021C3F83825FFF7CE
:107EB000B7FF10B16E4B03221A60FFF7B1FF40B15C
:107EC0006C4B05221A6001229A6700229A603F22B9
:107ED0005A60694B1B78062B50D1684B1B681907F9
:107EE0004CD1674B1B6803F0F003502B46D14FF089
:107EF0008052644BD2F80414C3F82015D2F8081449
:107F0000C3F82415D2F80C14C3F82815D2F81014AD
:107F1000C3F82C15D2F81414C3F83015D2F818147D
:107F2000C3F83415D2F81C14C3F84015D2F8201445
:107F3000C3F84415D2F82414C3F84815D2F828140D
:107F4000C3F84C15D2F82C14C3F85015D2F83014DD
:107F5000C3F85415D2F83414C3F86015D2F83814A5
:107F6000C3F86415D2F83C14C3F86815D2F840146D
:107F7000C3F86C15D2F84424C3F87025FFF730FF1E
:107F800028B1414B414A1B6803F04F031360FFF7D0
:107F900027FF48B14FF08043D3F80024D20744BFF5
:107FA0006FF00102C3F80024394B1B68062B08D17F
:107FB000384B1B68062B01BF374A136843F48063B4
:107FC0001360364AD2F8883043F47003C2F8883020
:107FD000BFF34F8FBFF36F8F4FF01023D3F8002202
:107FE000002A03DBD3F80432002B2FDA2C4B0122BA
:107FF000C3F80425D3F80024002AFBD04FF0102248
:108000001521C2F80012D3F80024002AFBD04FF04B
:1080100010231522C3F80422214B1A46D3F800146A
:108020000029FBD00021C3F80415D2F80034002B3E
:10803000FBD0BFF34F8F19491A4BCA6802F4E062B4
:108040001343CB60BFF34F8F00BFFDE7164B174ABA
:108050001A6008BD240300104035014074C0074079
:108060000DF0ADBA440200103C050040F0ED00E018
:10807000A005004010560040E00F00F0E40F00F0B3
:10808000E80F00F000C0004058020010E40E00406D
:1080900030010010340100103C17004000ED00E0FA
:1080A00000E001400400FA05142300200090D003F2
:1080B000044B1A5C012393404FF0A042C2F80C35E8
:1080C000704700BF3CB90200044B1A5C0123934087
:1080D0004FF0A042C2F80835704700BF3CB902001B
:1080E00008B50020FFF7F0FF0120FFF7EDFF0220A9
:1080F000FFF7EAFFBDE808400320FFF7E5BFC2072E
:1081000008B501460CD54FF0A0430322C3F844271D
:10811000C3F84827C3F84C27C3F85027FFF7E0FF00
:108120008B070AD54FF0A0430C22C3F83427C3F8BD
:108130003827C3F83C27C3F8402708BD38B5074C9B
:10814000051E04F1080318BF1C4623682BB11A68EA
:1081500022605B6828469847F7E738BDFC29002075
:1081600020B9054B01225A70FFF7E8BF012802D160
:10817000014A9070F8E77047F429002020B9034BBA
:1081800001225A70FFF7DABF704700BFF4290020C0
:1081900038B50B4C237883B90A486360A360236128
:1081A000E36000F0C9F8054602F0C6FC08B900F02B
:1081B000CFF801232370284638BD8525FBE700BF93
:1081C000F42900206181020037B50B4C00230DF12A
:1081D00007008DF80730FFF70DF8E368013BE36017
:1081E000E56815B900F0C6F8A5709DF80700FFF71F
:1081F00025F803B030BD00BFF4290020012813B5D5
:1082000008D003281CD018B9104B0122C3F88020D5
:1082100002B010BD0E4C00230DF107008DF80730A1
:10822000FEF7E8FF23780BB9FFF7B2FFE3689DF88C
:1082300007000133E3600123A370FEF7FFFFE7E7C8
:1082400000F086F8FFF7C0FFE2E700BF00E100E0C2
:10825000F42900201FB503788DF80030436801939E
:1082600083688DF80830C368054A0393054B684658
:1082700053F8213052F82110984705B05DF804FBFF
:10828000082A00200C2A00201FB503788DF8003042
:108290004368019383688DF80830C368054A0393E7
:1082A000054B684653F8213052F82110984705B025
:1082B0005DF804FB082A00200C2A0020F0B5194BB9
:1082C00090F800C091F81DE043F82C20164B16469C
:1082D0000A6943F82C20154B03F80CE00C460746BE
:1082E0000FCC89B06D460FC594E80F0085E80F00EC
:1082F000CDF810C0BEF1000F09D0002E0C4A69461F
:1083000008BF3246381D00F0CFFC09B0F0BD002E8A
:10831000084A694608BF324607F10C0000F0BCFA73
:10832000F3E700BF0C2A0020082A0020102A0020B2
:108330005582020089820200044A137923B901217F
:10834000106091801846704785207047142A0020DD
:10835000074B1A68D2075FBFC02283F800230122AF
:108360001A604FF080430122C3F81825704700BF00
:1083700000E100E0044B01221A604FF08042D2F885
:108380001834DB03FBD470470C000040154B07B5D5
:108390001A687AB100221A601B680093009B4FF0A4
:1083A00080430122C3F808230F4B587910B95A7142
:1083B0001B6898470D4B1A6882B100221A601B682F
:1083C0000193019B4FF080430222C3F80823064B20
:1083D0001B68012003B05DF804EB184703B05DF89B
:1083E00004FB00BF00010040142A002004010040EB
:1083F00000F1804000F5C040002382B003600368B4
:108400000193019B02B07047800000F1A040D0F8BA
:10841000002722F44032C0F80027D0F8003743EAA2
:108420000141C0F80017704738B51F4C251895F961
:108430003020072A16DD224492F848309B09032B8E
:108440000BD14FF0A043D3F81015C14001F001014A
:108450000231BDE83840FFF7D7BF012B0CBF022126
:108460000321F6E7D3B2072B1CD8930003F1804316
:1084700003F5C043D3F8100540F00100C3F8100520
:1084800002F14000800080B2FFF7B2FF51B195F9D0
:10849000303054F823302BB1012303FA02F2034B9E
:1084A000C3F8042338BD00BF1C2A00200060004030
:1084B0000E4B034493F93020072A02DD0021FFF719
:1084C000A3BFD3B2072B10D8930003F1804303F569
:1084D000C043D3F8101521F00101C3F81015012392
:1084E00003FA02F2024BC3F8082370471C2A00204B
:1084F000006000402DE9F04F87B000245A4D0394EE
:108500004FF48072012102F1804303F5C04390B221
:108510001B68012B06D1D5F804330B4202D0FFF7BC
:1085200067FF0C430432B2F5907F4FEA4101EAD174
:108530004E4B1B68012B0AD14FF4BE70FFF758FF5A
:108540004FF0A04344F00044D3F81035039314F0E7
:10855000FF0F1AD0464F00250126344210D0AB0041
:1085600003F1804303F5C043D3F81005D3F8101589
:1085700057F8253023B1C1F30141C0F304209847D7
:108580000135082D4FEA4606E7D1002C65DA0021B7
:108590004FF0FF33CDE90413354D01274FF0000AAA
:1085A000344ED1464FF0A04816F9013B5A1C45D035
:1085B000C3F3C20106AA5018DCB210F8042C03F071
:1085C0003F0B03F0070307FA03F31A4236D005EB1B
:1085D0000B02A40992F9302055F8222052B9032C3D
:1085E0002CD10DF1100E1EF801C04CEA030C0EF850
:1085F00001C001E0032CF4D00BF5E07110F80C0C75
:1086000058F821101842C1F3014105D0022915D1B3
:10861000032C0FD1214604E003290FD1032C09D1EB
:1086200002215846019209F10109FFF7EDFE019A76
:108630005FFA89F912B12146584690470AF1010ABA
:10864000BAF1040FB0D1B9F1000F06D04FF0A0433A
:10865000039AD3F81035934202D107B0BDE8F08FEA
:108660000393049B059399E7006000407C61004000
:108670001C2A00206C2A0020014B1B68184700BFF1
:10868000782A00200E4B984237B50C4602D00020C5
:1086900003B030BD00230DF107008DF80730FEF761
:1086A000A9FD084B1D7915B901221C601A719DF8AE
:1086B0000700FEF7C3FD002DE9D01120E8E700BF59
:1086C00000200040782A0020034B984201BF034B52
:1086D00000221A601A71704700200040782A00209A
:1086E0000023435082B043580193019B02B070476E
:1086F0000A4610B54FF48E71FFF7F2FF136A9168C6
:10870000C95C136A01331362C0F81C1510BD8B6974
:108710000A4610B54FF4847123B9FFF7E1FFD0F892
:10872000183510BDFFF7DCFF536AD168D0F8180583
:10873000C854536A01335362F3E700001FB50123A5
:108740008DF80030044BCDE90110D3E900126846E2
:10875000904705B05DF804FB802A002030B54C48F6
:10876000D0F8043313F4007F85B005464DD0D0F81F
:108770002431002B49D04FF49271FFF7B1FF4FF431
:108780000173C0F80833434B93F829200AB901223A
:1087900042603F4902228DF80020D1F88024C1F8C0
:1087A000802403929A690292DA6801920022C3E956
:1087B00006226846D3E9001290473548D0F81C31AC
:1087C0005BB134494A690B6A9A420A464AD991F820
:1087D0002830002B46D1FFF78BFF2D48D0F84431CD
:1087E0008BB14FF4A271FFF77BFF2A4B93F829203E
:1087F0000AB1012202609A692AB10022586AD96836
:108800009A61FFF79BFF05B030BDD5F804335B07D5
:10881000D3D5D5F80831002BCFD01E4C1C482146AB
:10882000FFF775FF636AA2699A422346C5D1E269E0
:10883000E1684AB12369E3600023606AA261E361F1
:108840006362FFF77BFFB8E794F829200AB9012299
:108850006A600F4A4FF40170C2F808030022586A98
:108860009A61EEE70A484FF48E71FFF739FF5369BA
:10887000002BB2D051690291002391688DF800302D
:10888000019153616846D2E900139847A5E700BFFC
:1088900000200040802A00202DE9F843574B05793D
:1088A00091462C2202FB0532064692F82A200C46FD
:1088B0009846002A40F09D8051490068FFF7E2FE8B
:1088C0000746002840F0978021683368481C0BD089
:1088D0004FF0A04001228A40C0F8082501F5E0725F
:1088E0004FF0030C40F822C06068421C1FBF00F527
:1088F000E0724FF0A04C4FF0000E4CF822E0A2695D
:10890000C3F8242594F814C0627DBCF1010F4CEA31
:108910000202C3F86C25C3F81405C3F80C151DD169
:10892000A1684A1C1FBF01F5E0724FF0A0404FF054
:10893000000C40F822C0E268501C0BD04FF0A04C55
:1089400001209040CCF8080502F5E0704FF0030ECE
:108950004CF820E0C3F80825C3F810152C236B430E
:1089600008EB0302C2F80490226948F80320B9F129
:10897000000F2BD03068247F4FF48E71FFF7B0FECC
:1089800030684FF4A271FFF7ABFE32681D4BC2F89E
:108990000433110B42F30732002AA8BF02F16040F2
:1089A0004FEA4413BABF184801F00F0400F56140C4
:1089B000DBB2B4BF035580F8003301F01F0101237F
:1089C00003FA01F15209114B43F8221033680422D3
:1089D000C3F800252C2303FB05830022C3E90622EC
:1089E00083F829205A61012283F82A203846BDE8FD
:1089F000F8830827FAE71127F8E700BF802A00204C
:108A00005D8702008000020014ED00E000E100E05C
:108A1000F8B5047900682C4D0023C0F800352C23EC
:108A200003FB04535B686BB1284BC0F8083340F379
:108A30000733C0F304315B0901228A402033244903
:108A400041F82320D0F80C65D0F81415D0F808357B
:108A5000D0F810254FF0FF37BE42C0F8147518BF8C
:108A600006F5E076C0F80C75C0F80875C0F810750A
:108A70001EBF4FF0A0474FF0020C47F826C04E1C17
:108A80001FBF4FF0A04601F5E071022746F82170A4
:108A9000511C1FBF4FF0A04102F5E072022641F8C1
:108AA00022605A1C1FBF03F5E0734FF0A042022161
:108AB00042F82310FFF708FE2C2303FB0454002385
:108AC00084F82A306360F8BD802A00208402020006
:108AD00000E100E02DE9F047204F90F804904FF0BE
:108AE0002C0808FB097405466669002E34D16261C2
:108AF0000068A16026624FF48E7184F82860FFF749
:108B0000EFFD2868012383602146FFF7F1FD6368CC
:108B1000A0468BB92868D4F814A0236A9A4511D8C6
:108B20002A68D2F81C31002BFBD00123D3602C2300
:108B300003FB097300225A613046BDE8F08794F8C0
:108B400028303BB9D0F81C31002BF8D04146FFF754
:108B5000CFFDE2E70F26EAE71126EDE7802A0020A5
:108B60000023435082B043580193019B02B07047E9
:108B70001FB501238DF80030044BCDE90110D3E976
:108B800000126846904705B05DF804FBAC2A00204F
:108B90007FB5434AD2F82461002E60D010464FF4CE
:108BA0009271FFF7DDFF02238DF80030D2F8803498
:108BB000C2F880340393D2F83C350293394BDA681B
:108BC00001920022C3E906226846D3E900129047C9
:108BD0003348D0F8443173B14FF4A271FFF7C0FFAE
:108BE000304B9A693AB10022C3E90622D968D0F81D
:108BF0003C05FFF7BDFF2A48D0F82031ABB14FF458
:108C00009071FFF7ADFF0123C360264B5A6962B133
:108C1000D0F84C150291002299688DF8002001913E
:108C20005A616846D3E9001290471D48D0F8583180
:108C30009BB14FF4AC71FFF793FF1A4B5A6962B1C5
:108C4000D0F84C150291002299688DF8002001910E
:108C50005A616846D3E90012904704B070BDD2F85B
:108C60001031002BB4D04FF488711046FFF778FF15
:108C70000C4BD2F83C0599698842A9D1DC69D968C6
:108C800064B1D2F8005225F02005C2F800521A69EA
:108C90009C61DA60DE61FFF76BFF99E79C61FAE7A0
:108CA00000200040AC2A00202DE9F8435D4B0679F6
:108CB0009146242202FB0632044692F820200D46FB
:108CC0009846002A40F0AA8057490068FFF7DAFC6E
:108CD0000746002840F0A48029682368481C0BD070
:108CE0004FF0A04001228A40C0F8082501F5E0724B
:108CF0004FF0030C40F822C06868421C1FBF00F50B
:108D0000E0724FF0A04C4FF0000E4CF822E0AA6940
:108D1000C3F8242595F814C06A7DBCF1010F4CEA14
:108D20000202C3F86C25C3F80C15C3F814051DD155
:108D3000A9684A1C1FBF01F5E0724FF0A0404FF038
:108D4000000C40F822C0EA68501C0BD04FF0A04C39
:108D500001209040CCF8080502F5E0704FF0030EBA
:108D60004CF820E0C3F80825C3F8101524237343FA
:108D700008EB0302C2F804902A6948F80320B9F10D
:108D8000000F3AD020682A7F4FF48871FFF7E8FE81
:108D900020684FF49071FFF7E3FE20684FF4927162
:108DA000FFF7DEFE20684FF4A271FFF7D9FE2068BE
:108DB0004FF4AC71FFF7D4FE23681C49C3F80413C9
:108DC000190B43F30733002BAEBF03F1604001F0F2
:108DD0000F0517484FEA4212A8BF00F56140D2B212
:108DE000B4BF425580F8002301F01F01012202FAAE
:108DF00001F15B090F4A42F8231023680822C3F8E7
:108E00000025242303FB06830022C3E906225A61BE
:108E1000012283F820203846BDE8F8830827FAE7C6
:108E20001127F8E7AC2A0020918B020010034200C2
:108E300014ED00E000E100E0F8B5374D047924239B
:108E400003FB045302465B6800686BB1334BC0F808
:108E5000083340F30733C0F304365B090121B14006
:108E600020332F4E46F82310D0F80032012623F08D
:108E70002003C0F800324FF4AC714660FFF770FE7B
:108E80001068C660D0F85831002BFBD00023C0F822
:108E90000035D0F80C65D0F81415D0F80835D0F8A6
:108EA00010254FF0FF37BE42C0F80C7518BF06F50D
:108EB000E076C0F81475C0F80875C0F810751EBFCC
:108EC0004FF0A0474FF0020C47F826C04E1C1FBFC2
:108ED0004FF0A04601F5E071022746F82170511CC1
:108EE0001FBF4FF0A04102F5E072022641F8226058
:108EF0005A1C1FBF03F5E0734FF0A042022142F855
:108F00002310FFF7E1FB242303FB0454002384F820
:108F100020306360F8BD00BFAC2A0020100342007F
:108F200000E100E001F06043B3F1005F2DE9F041A2
:108F3000064638D11E4B0779242505FB0735984690
:108F40006C69002C31D16A610068A9604FF490719E
:108F5000FFF706FE4FF4AC713068FFF701FE33688F
:108F60006A69A968C3F84415C3F8482501229A60C4
:108F70006A68AAB9D3F82021D3F858411AB9002C4D
:108F8000F8D00F2407E0002CFBD10122DA60D3F8DF
:108F90005821002AFBD0242303FB078700237B6191
:108FA0002046BDE8F0811024FAE71124F8E700BF5D
:108FB000AC2A00202DE9F74F4FF0000BDFF8A0A0FE
:108FC000DFF8A08006460425D9465FFA8BF7012416
:108FD0000DF10700BC408DF80790FEF70BF914EA7D
:108FE0000A0F09D0D8F8003014EA030201BF234366
:108FF000C8F80030377015469DF80700FEF71EF9D7
:10900000EDB91248124B1349C01AC00800043A4681
:1090100040F00300FDF744FD2846FEF7D7FE0B4C59
:109020000D4A0E4903460A48241AE408240444F071
:109030000300FDF73EFD284603B0BDE8F08F3AEA95
:10904000040A0BF1010BC0D1E6E700BFE4B1020056
:10905000D4B1020062B90200DAB9020079B90200A3
:10906000FFFF0100D02A002037B589B382B3194D24
:10907000194C0123641B8340E4082404C3F3100546
:1090800044F0030405B3154D2D682B421ED0C500D6
:1090900005F1804505F5F8350B46C5F81015C5F8FE
:1090A00014250F49009202462046FDF70CFD0025CD
:1090B0002846FEF78BFE0B4A0B4903462046FDF778
:1090C000F8FC284603B030BD0725F1E70825EFE797
:1090D0000E25F6E7D4B10200E4B10200D02A002048
:1090E00097B90200F1B9020079B9020038B501233D
:1090F00003FA00F0440C6404C4B918B10D4B1B68AA
:10910000184215D00C4BC3F804052046FEF75EFE4E
:109110000A4D0B4A0B4903460B482D1AED082D0446
:1091200045F00300FDF7C5FC204638BD0724ECE7F9
:109130000824EAE7D02A002000F00140E4B1020050
:1091400009BA020079B90200D4B1020000F18040EE
:1091500000F5E040002382B0036003680193019BA7
:1091600002B07047F0B5504B504C1B6885B0002BD7
:109170003DD04FF4827094F82E20FFF7E7FF2AB31A
:1091800094F82F3013BB4A4B1B68002B33D04FF49D
:109190008070FFF7DBFF638B94F82D108B424FD963
:1091A00022895B1A9BB292B26383D31A626802EB84
:1091B0004303404AC2F82C36C2F830164FF482708E
:1091C000FFF7C4FF3C4B01221A6014E0636802936E
:1091D0002389ADF80C30E36800218DF8041023BB1F
:1091E0002374236801A89847002384F82F3094F84B
:1091F0002E30002BC7D1314B1B685BB14FF4887008
:10920000FFF7A4FF0023237402238DF8043001A884
:10921000236898472A4B1B68EBB14FF48A70FFF71D
:1092200095FF0023237405B0F0BD208B608363603D
:109230002081E160002AD4D11E4B01221A60D0E7C0
:10924000BCD1E368012284F82F2013B1002262838D
:10925000AFE76383B2E766694FF000470125002E50
:10926000E1D0B6FA86F227FA02F34632920026EAF5
:10927000030602F1804303F5E0431B68002BEED0A8
:109280001046FFF763FFA2F58C72D30882F0040248
:10929000C2F380028DF808308DF8045023688DF8F1
:1092A000092001A89847DAE704710040D42A002079
:1092B00000710040007000400470004010710040D8
:1092C0001471004038B51E4B044693F82C00A8BB1F
:1092D0001C4A19602178C2F8F0156178C2F8F415BB
:1092E000E5781874012183F82C1083F82D0058615B
:1092F00083F82F0083F82E506FF00043C2F8083334
:109300004FF48270FFF722FF4FF48070FFF71EFFCB
:109310004FF48A70FFF71AFFA3780B485B01DBB2AA
:1093200080F80733802303600223C2F804330DB1B1
:10933000C2F80413C2F80015002038BD0820FCE76D
:10934000D42A00200070004000E100E070B52A4BF4
:109350001A7C02F0FF05002A4BD10A79012A9CBF32
:10936000264CC4F8005500F10C0503EB45042479A4
:1093700024B993F82D40013483F82D4003EB4503C5
:10938000CC790D7A8E781C715D714B7836021B0199
:1093900006F4E06603F0300333430E7806F003066C
:1093A0003343CE78360306F480563343160406F46E
:1093B000E02633434E798979360506F4801609068E
:1093C000334301F080710B430C4901EB001600019F
:1093D00000F1804000F5E040012AC6F81835C0F8D9
:1093E0001455C0F8104502D80123C1F800350020FB
:1093F00000E0112070BD00BFD42A002000700040A2
:10940000054B93F82E30002B14BF0020042000F1F0
:10941000804000F5E0407047D42A002070B5264A0D
:10942000264B05461220C2F808031C7C022C03D1EF
:10943000C2F80403112070BD187C01281DD1D86822
:1094400018B10223C2F80433F4E7DD60198393F8FE
:109450002E3063B91A4A1368002BFCD04FF4807089
:10946000FFF774FE144BC3F82C56C3F83016124B9A
:109470000222C3F804230020DDE7022093F82E40E7
:10948000C2F80403012600201E745D601981D860B3
:109490003CB1598393F82D30C2F82C56C2F83036BF
:1094A000C9E7C2F82C564FF48070C2F83016FFF7A7
:1094B0004DFE20461660BEE700700040D42A002012
:1094C00000710040F7B506792F4D0C237343EF1858
:1094D0003C7A002C56D1EA504B687B604779036890
:1094E0002246D0B2874244D843F30734C878002CD0
:1094F000A8BF04F16047C3F30732BABF234F02F09D
:109500000F0C07F561474FEA4010C0B2B4BF07F82F
:109510000C0087F80003640901201D4F02F01F02B0
:1095200000FA02F247F82420D3F804454A7824F0E0
:10953000030402F003022243C3F80425D3F80845CC
:109540008A7824F0030402F003022243C3F80825BA
:109550000A78D3F8104502F00F0224F00F010A43F5
:10956000C3F810250C2303FB06552872002003B016
:10957000F0BD900000F5A07001321C501858019009
:109580000198AEE70820F2E7042B002014ED00E07C
:1095900000E100E0036801221A600379034A0C210C
:1095A00001FB032302221A72704700BF042B002024
:1095B00037B54FF4803400688C407BB18B0003F5E5
:1095C000A0730025C550C3580193019BC0F8044304
:1095D00001F5A87140F8212003B030BDC0F8084360
:1095E000F6E770B4046840F20116D4F800528E40D9
:1095F00025EA0605C4F80052D4F800522B43C4F8FB
:1096000000329DF80C3070BCFFF7D2BF2DE9F3415A
:10961000104C114F114E00254FF48038236883B150
:10962000D7F8043308FA05F21A420AD0002323605F
:109630002368019304F5E040019B80B2D6E9003134
:1096400098470135042D04F10404E7D102B0BDE8C8
:10965000F08100BF4091004000900040042B0020AA
:10966000034B187810B901221A7070478520704793
:10967000102B002072DF704773DF704776DF704772
:109680007ADF70477CDF70477FDF70478FDF70477E
:10969000B1DF70477047FDF7BDBB000008B5064B52
:1096A00001211878FFF7E8FF08B1FDF7B3FBBDE82B
:1096B00008400020FEF7FCBC282300200388212B53
:1096C00013B5044654D007D8112B30D0132B47D0F4
:1096D000102B0CD002B010BD522B51D0562B01D004
:1096E0003B2BF7D1A0881321FFF7C8FF1AE0284BC6
:1096F00028482949C01AC008000440F00300FDF7BB
:10970000CBF90120FEF7D4FC0020FEF7DDFC234B53
:10971000A1882348198001F0A3F808B1FDF77AFB6E
:10972000FDF736FB0028D5D0FDF774FBD2E7184BC8
:1097300018481C49C01AC008000440F00300FDF797
:10974000ABF90120FEF7C0FC144B4FF6FF721A80F4
:10975000FDF734FB08B1FDF75DFBFFF79FFFB9E7AD
:109760000E4800231A4685210088FFF78DFFD9E7B0
:10977000002301A98088ADF80430FFF787FFD1E707
:10978000064800231A4619460088FFF781FFC9E7FB
:10979000D4B1020014B202002DBA02002A23002024
:1097A000882B002037BA020008B503784BB9054B67
:1097B0003B211888FFF762FF18B1BDE80840FDF7AC
:1097C00029BB08BD2A23002073B503780446002B6B
:1097D00058D140682E4DB0F900302B800121FFF7A1
:1097E0001DFE08B1FDF716FB2B882A4E2A4D1BB231
:1097F00007EE903AF8EEE77AB0EE087A77EE877ADD
:109800009FED267A67EE877A17EE900A01F0ACFB9F
:109810001DA3D3E9002301F0F7FA214B002201F048
:10982000F3FA01F08DFB80B230801E4B1E482A688F
:109830001E491B1ADB081B0443F003000190FDF7CF
:109840002FF963681A49B3F900200198FDF728F948
:109850002B683288174901332B60174B92B2188856
:1098600001F0C0F830F008020CD043F2020290423E
:1098700008D043F20142904204D002B0BDE87040EB
:10988000FDF7C8BA02B070BD6666666666660A40D5
:10989000962B0020942B0020142B00200000803AEF
:1098A0000000594014B20200D4B1020044BA0200D0
:1098B00056BA02006C2B00202A23002010B50A4B58
:1098C0000A4CE41AE408240444F0030402203AB1E8
:1098D000FEF7EEFB06492046BDE81040FDF7DCB878
:1098E000FEF7F2FB0349F6E7D4B1020014B202001E
:1098F00059BA02006ABA0200FDF78CBA1FB5FFF729
:10990000AFFE08B1FDF786FA174A18480023CDE9E3
:10991000022302A9164AFFF7D5FD08B1FDF77AFA2E
:10992000144B1548D3F810250021D2B220FA02F2C8
:10993000009101230D48FFF754FE0C48FFF72AFE63
:10994000FFF75EFD04460D48FFF734FB08B1FDF755
:1099500061FA0A4B0A4918782246FFF785FB08B1DD
:10996000FDF758FA04B010BD00000306ACBA0200BF
:10997000959602000090004000A86100842B002012
:109980004091004008B5054B1878FFF7AFFB18B1C0
:10999000BDE80840FDF73EBA08BD00BF842B00209B
:1099A0001FB50F4A10685168127A01AB03C30D4905
:1099B0000D481A70FFF786FC08B1FDF72BFA01A9D4
:1099C0000020FFF7C3FC08B1FDF724FA0748012186
:1099D000FFF724FD08B1FDF71DFA05B05DF804FBA3
:1099E0009FBA0200C9970200A8BA0200182B0020F3
:1099F00010B54FF48041A6B00020FCF797FE08B1E7
:109A0000FDF708FAFCF7C8FDFEF740F908B1FDF7CD
:109A100001FA0120FEF773FBFDF7BEFA08B1FDF76E
:109A2000F9F9FFF7BDFFFFF769FFFFF7ABFFFEF79F
:109A30002DF908B1FDF7EEF901F040F808B1FDF796
:109A4000E9F9002317A90120179301F0BFF808B125
:109A5000FDF7E0F917A801F06BF908B1FDF7DAF9A5
:109A6000112359488DF8203001F051FB564982B23C
:109A700008A8FFF707FE08B1FDF7CCF9082200217E
:109A800017A801F011FB514A4FF0C87317A8CDE990
:109A90001723FFF7F5FD08B1FDF7BCF94C4800218D
:109AA00000F0D6FD08B1FDF7B5F900230893494849
:109AB000494B179317A900F0C1FE08B1FDF7AAF9A9
:109AC000464B4748089308A900F040FF08B1FDF74E
:109AD000A1F941F22353ADF80430414B414C9B7C3A
:109AE0008DF806303C22002108A801F0DDFA02239F
:109AF0008DF820303C2240F20163002117A8ADF818
:109B0000223001F0D1FA22460123ADF86C3052F830
:109B1000041B01AB08A81C9300F0EEF808B1FDF798
:109B200079F9314AA16817A800F0E6F808B1FDF705
:109B300071F91822002102A801F0B6FA00230122CF
:109B4000ADF8143003934FF480738DF80820ADF80E
:109B50001C3024492548402302AA0493FFF78AFDBC
:109B600008B1FDF757F91C22002117A801F09CFA53
:109B700000234FF4A022CDE91732ADF86A304FF43C
:109B8000A0328DF86C301A4B19921C930322194B9A
:109B90008DF8682017A81D9300F076FB08B1FDF73B
:109BA00039F9154B15481649C01AC008000440F091
:109BB0000300FCF771FFFFF771FDFCF711FE0028B1
:109BC000FBD1FEF779F8F8E77CBA02005000A0005C
:109BD000582B0020882B002097960200BD98020089
:109BE0006C2B002018230020242300202823002091
:109BF000A9970200F9980200D4B1020014B2020041
:109C000087BA02006DDF704779DF70477DDF7047EC
:109C100064DF70472DE9F04F85B000250E9CBDF83C
:109C20003CB0B4F800A00191074690461E46A946F4
:109C30003A884A450DDC45B12388013BA3EB0A0372
:109C40009BB2FF2B3AD806F80A30002005B0BDE8D9
:109C5000F08F7A6852F82900039000220DF10B0171
:109C600003A8FFF7D5FF0028F0D19DF80B2042454F
:109C700021D12288002D14BF0020022002EB080110
:109C8000014459451ADC3DB9013292B2019B228050
:109C9000B35422880132228022880DF10B01324414
:109CA00003A8FFF7B5FF0028D0D121889DF80B202D
:109CB0000A442280012509F10109B9E70C20C5E712
:109CC0002DE9F341089FBDF824801546CDE90078C1
:109CD000022204461E46FFF79DFF50B9334610226C
:109CE00029462046CDE9087802B0BDE8F041FFF7EB
:109CF00091BF02B0BDE8F0812DE9F04F0023178835
:109D0000138090F82D3085B006460D46144653B3A7
:109D1000082F01D80C2027E102A8FFF773FF0028C5
:109D200040F0228123880822EA54238801339BB221
:109D30001B222380EA542088013080B22080062232
:109D40000DF10901284401F086F923889DF80820C7
:109D500006339BB212F0FE0218BF01222380EA54A0
:109D6000238801332380B378FBB123880433BB42BB
:109D7000D0D802A8FFF748FF002840F0F5802388DC
:109D80000322EA54238801339BB219222380EA5428
:109D90002388BDF8082001339BB2E9182380EA54D8
:109DA000120A4A70238802332380F2789AB12388FA
:109DB000D91CB942AED80221E954238801339BB2A1
:109DC00001212380E95423880B449BB22380EA5469
:109DD00023880B4423807268AAB12388D91CB94216
:109DE00098D8022192F90020E954238801339BB2CC
:109DF0000A212380E954238801339BB22380EA544B
:109E00002388013323803389002B40F0A180338ADB
:109E10005BB1CDE900472B460722032106F1100074
:109E2000FFF74EFF002840F09F80338B5BB1CDE9F8
:109E300000472B461522142106F11800FFF740FFBA
:109E4000002840F09180326A002A40F09080D6F8D5
:109E50002480B8F1000F30D0B8F804302188981C65
:109E60008A1C0244BA423FF655AFFE283FF652AF75
:109E700003336B54238801339BB2FF222380EA54BF
:109E8000238801339BB22380B8F80020EA54E918F4
:109E9000120A4A702088023080B22080B8F804206C
:109EA0005AB1D8F8081000296BD0284401F0D3F833
:109EB0002388B8F804201344238096F82C30002B14
:109EC00040F09A80307800284ED03388012B58D04B
:109ED000228802F1020CBC453FF61CAF012805D1D7
:109EE0007378023313449F42FFF414AF023FBF1A4A
:109EF000BFB202A905EB0C00ADF80870FFF786FEB3
:109F000090BB3178BDF80830022900F0BA80727831
:109F10009A4202D3BB4240F2B280012940F0B380A2
:109F2000974293B2C0F0AF80ADF808300821BDF879
:109F30000830FE2B3FF6EEAE22880133AB54228868
:109F4000013292B22280A9542288134423800BE06C
:109F5000CDE900472B460622022106F10800FFF753
:109F6000AFFE00283FF453AF05B0BDE8F08FB4F862
:109F700000C00CF10603BB423FF6CCAE11880529A8
:109F800001D80720F0E76FF4486E01EB0E039BB297
:109F90004FF27D3E7345F4D95388052BF1D96FF408
:109FA0004860181880B27045EBD94FF6FF708142B7
:109FB00003D0834201D09942E3D8052305F80C3041
:109FC000238801339BB212212380E9542388013373
:109FD0009BB223801188E954E818090A417023884C
:109FE00002339BB223805288EA54E918120A4A705D
:109FF0002388023323802AE7B36A002BC1D04FF0B5
:10A0000000094FF00C0A4FF0160B96F82C305FFA4F
:10A0100089F293427FF656AFB16A0AFB02F201EB76
:10A020000208B8F80430981CFE283FF673AE20886A
:10A0300003332B54238801339BB2238005F803B0EC
:10A04000238801339BB223808A5AEA54E918120A02
:10A050004A702088023080B22080B8F804205AB1BB
:10A06000D8F8081000298CD0284400F0F4FF238889
:10A07000B8F804201344238009F10109C5E7092138
:10A0800055E7BB42FBD9ADF808704FE775DF704765
:10A0900076DF70477ADF70477BDF7047034B1A88A3
:10A0A00082420CBF18460020704700BFB42B00202E
:10A0B000024B9B6903B11847704700BF982B0020E3
:10A0C00073B585B22846FFF7E9FF044670B1164E16
:10A0D000027A337B9A420BD200F10A012846FFF73D
:10A0E000D5FFE8B1112801D0FFF7E2FF02B070BD43
:10A0F00000230372337C43B13B212846FFF7C8FF9E
:10A1000030F0080301D0FFF7D3FF7369002BEDD0C7
:10A1100000228DF80420ADF8065001A89847E5E725
:10A12000237A01332372E1E7982B002037B50B46E1
:10A13000497A0F4A71B9D2E901141D7A0246002DFD
:10A1400018BF21465868FCF764FF08B1FFF7B0FF5D
:10A1500003B030BD002119725369002BF8D00122E1
:10A16000ADF806008DF8042001A89847F0E700BF7D
:10A17000982B00204B8802889A4213D842889A4232
:10A1800010D380888A8840F2F313984294BF031A50
:10A19000C31A934206D800F2F310904234BF002055
:10A1A00001207047002070470388122B70B50146CC
:10A1B00059D004D8102B1ED0112B44D070BD502B79
:10A1C000FCD12F4BC288DB899A42F7D1038A022B3C
:10A1D000F4D186883046FFF761FF05460028EDD0B0
:10A1E00001F1120000F03FF938BB6868FCF729FF65
:10A1F0000028E3D009E0C37B012BDFD14FF6FF70CD
:10A20000FFF74CFF054620B90420BDE87040FFF77A
:10A210004FBF1C4A8E880680002303721368C0F863
:10A220000A305368C0F80E3010310A30FFF7A2FF31
:10A23000134B6872DB89002BC0D129463046BDE83C
:10A240007040FFF773BF8088FFF728FF044600289F
:10A25000B4D04068FCF7F5FE08B1FFF729FF4FF6D0
:10A26000FF732380AAE786883046FFF717FF05466D
:10A270000028A3D008310A30FFF77CFF6872DCE7C2
:10A28000982B0020C82B0020F8B5064648B3054699
:10A290000FCD154F3C460FC495E8070084E8070032
:10A2A0003068124C3C60B0B1FFF7F4FEC0B93268C0
:10A2B00013682360536863600D480E4A4FF6FF73BE
:10A2C00003800D4B40F8043F0021FCF797FE002867
:10A2D00018BF032004E02046FFF7DEFE0028EBD085
:10A2E000F8BD0E20FCE700BF982B0020C82B0020F3
:10A2F000B42B0020C1A00200D02B00200AB1FDF732
:10A300007BB9FDF782B973B50191019C06466CB12A
:10A3100000252C46294601A8FDF781F918B106EB66
:10A32000440301349D800135142DF3D1304634604F
:10A3300002B070BD2DE9F04703888488103B8CB0D3
:10A3400005460A2B1FD8DFE803F0063F1E1E1E1E1F
:10A350001E1E1E604400314EB368DB4300937168DB
:10A360006846FDF788F9009901A8FFF7CCFF0DF1C9
:10A3700008094FF00008019B984507D3132C13D907
:10A380000420FCF747FD0CB0BDE8F08739F802ABBC
:10A3900000270137514606EB8700FDF736F91E2FDF
:10A3A000F7D108F10108E6E71D482146FDF724F939
:10A3B0001C482146FDF720F9EB7B012BE3D01A481E
:10A3C0002146FDF719F9DEE715482146FDF71DF98D
:10A3D000D9E7027A15483F2A4FEA1215214694BF61
:10A3E00000220122FFF78AFF022D94BF00220122E2
:10A3F0000F482146FFF782FF012D0E4894BF00222F
:10A4000001222146FFF77AFFBDE7037A002BBAD17C
:10A41000427A0648C2F3C0022146F3E7F02B00203F
:10A42000F82B0020F42B0020FC2B0020082C00200F
:10A43000042C0020002C0020AADF704700230138E4
:10A440000B70042806D8DFE800F00306080A0C00A9
:10A4500011230B7070472123FBE73123F9E7122307
:10A46000F7E72223F5E7007800F001007047F0B528
:10A470008B7891B0012B0C4638BF01238DF80E303C
:10A4800005460B88ADF80C300021164668460322BD
:10A4900000F00AFE607C6946FFF7D0FFA07C0DF15A
:10A4A0000101FFF7CBFFE27B237B217D43EAC2035F
:10A4B000227C43EA02139DF80220002922F01902AF
:10A4C00003F0190314BF02210121134361F3420376
:10A4D0001C22002109A88DF8023000F0E5FD637B05
:10A4E00013F0300F15D002AF03220021384600F0E0
:10A4F000DBFDE07C0DF10901FFF7A0FF11238DF8D2
:10A5000008309DF80A300E97012262F342038DF85D
:10A510000A30637B8DF824301422A37B8DF825301C
:10A52000002104A800F0C0FD03AB0493A388ADF89C
:10A530001C30A368CDF814D01BB1E288ADF8182008
:10A540000893A369002B31D001AF032200213846C4
:10A5500000F0AAFDA3691A88ADF82C205A88ADF83E
:10A560002E205A680D97187B0A923946FFF766FF2E
:10A57000A3690DF10501587BFFF760FFA269917A8D
:10A58000137A43EAC103D17A927B43EA01139DF81F
:10A590000610002A03F0190321F0190114BF02224A
:10A5A00001220B4362F342038DF80630E36903B1E5
:10A5B0000C93334604AA09A92846FFF73DFF11B0C2
:10A5C000F0BD90DF7047A5DF7047B5DF7047000032
:10A5D0007FB50023ADF80810ADF80A106A4602A94D
:10A5E000064603930093ADF80430FFF7EAFF0546F3
:10A5F00000B3124B124CE41AE408FDF7E7FB240405
:10A6000044F0010403460F4932462046FCF751FA54
:10A61000BDF80020BDF8023052EA030103D00A4918
:10A620002046FCF746FABDF804201AB10749204637
:10A63000FCF736FA284604B070BD00BFD4B1020062
:10A6400034B20200B4BA0200FEBA02003DBB0200FE
:10A6500078B14FF0171303601B2303711723C380D6
:10A66000038141F61B320023016143818281184638
:10A6700070470E207047000013B5034680880C46D3
:10A68000B8B91A88242A00F0958014D8112A71D0FC
:10A69000232A00F09D80102A3BD0A37A4BB1E18899
:10A6A0000020FFF790FF002840F098804FF480735F
:10A6B000638102B010BD3A2A64D0552AEDD1DB88FF
:10A6C000C988A072172B38BF17238B4228BF0B46AF
:10A6D0002381FFF77AFF60B1FDF778FB484B4949CA
:10A6E000024649481B1ADB081B0443F00100FCF733
:10A6F000D7F9E37A002BD0D12369002BCDD040F6D7
:10A70000772200922289ADF80420694620469847B6
:10A71000C3E7DB7B0A790A73012B13D0022B14D019
:10A72000E18823898B4205D20020FFF74CFF70B9E6
:10A730000123E372217B637B8B42AED20020FFF7C3
:10A7400047FFAAE70B88E380EAE74B88FBE711287D
:10A7500002D10123A372EDE7FDF738FB284B2B490B
:10A76000024629481B1ADB081B0443F00100FCF7D2
:10A7700097F9DFE71723CB800B8141F61B33488124
:10A780008B818AE75B89CA88934228BF1346172BBF
:10A790000A6938BF17230B814AB1C97A39B140F62B
:10A7A00077210091ADF80430694620469047002398
:10A7B000638172E71A7A0B694A73002B3FF46DAF1D
:10A7C0004DF67A218DF8050000918DF804209CE764
:10A7D000197A237B994228BF1946B0E711283FF424
:10A7E00068AFFDF7F3FA064B0849024606481B1A04
:10A7F000DB081B0443F00100FCF752F959E700BFE6
:10A8000034B20200C4BB0200D4B1020093BB020008
:10A81000B0DF704766DF704710B5002104464088FE
:10A82000FFF7F8FF034608B9237210BD112801D1C4
:10A830000123F9E76368BDE81040184760B159B1DA
:10A840000378DE2B0AD00B684360DE2303704FF6DB
:10A85000FF734380002070470E2070470820704728
:10A8600028B10378DE2B04D14180002070470E20F0
:10A87000704708207047F0B5054685B00C46F1B129
:10A88000E8B10B78DE2B1AD182884B889A4204D12A
:10A890000B7A13B10846FFF7BFFF2B88112B32D07C
:10A8A000512B0ED0012B0AD12B7A012B07D1A9886D
:10A8B0006288914203D123722046FFF7ADFF05B0B5
:10A8C000F0BDAE886388B342F9D1AF79022FF6D1DB
:10A8D000AD7B2B1F022BF2D800211022684600F01E
:10A8E000E3FB052D14BF4FF4C073002369463046C7
:10A8F0008DF80070ADF80430FFF78AFF0028DED035
:10A9000063689847DBE76388AA889A4204BF4FF6DA
:10A91000FF736380D3E7A8DF7047AEDF704762DF65
:10A9200070470288502A10B40DD1C4884A889442D6
:10A9300009D1028A012A06D14B6923B1827C5DF8D4
:10A94000044B808818475DF8044B7047F0B50B68DE
:10A9500043618FB0224B02AA044603F1100716464A
:10A9600018685968154603C50833BB422A46F7D113
:10A9700004F112013046FFF7D2FF70BBA37C8DF8C3
:10A980000630224641F2235301A90120ADF80430DC
:10A99000FFF7C1FF08BB0146202206A800F084FB98
:10A9A00041F22453ADF81830A37C8DF81A304FF0E3
:10A9B000021307939DF82530224623F0120343F03B
:10A9C00012038DF8253032F80A0B012306A98DF801
:10A9D00029308DF82B30FFF74AFD0FB0F0BD00BFD6
:10A9E00000BC020030B589B00446ADF80620102244
:10A9F0000D4602230DEB02000021ADF80E3000F0F1
:10AA000053FB01238DF812306B89ADF810300DF136
:10AA10000603079304A90DF10E0320460693FFF7E2
:10AA20007CFF09B030BD10DF7047000013B504464D
:10AA300009496846FDF76FF9019808B902B010BDE1
:10AA4000D0E900212046904718B16846FDF76DF91E
:10AA5000F2E71120F2E700BF1CBC020013B5044668
:10AA600007496846FDF757F9019B0BB902B010BDC5
:10AA70002046D3E9002190476846FDF756F9F3E7F1
:10AA800034BC02000B4991F816335A09EC231341E8
:10AA9000DB0706D5084B9A683AB94FF480030B6080
:10AAA000704742F20200FCF7B5B91A6842F480021E
:10AAB0001A60704700E100E0CC290020F7B5194F7B
:10AAC0003C7864BB184E012520463570FFF7AEFF79
:10AAD000112821D02046FFF7C1FF144B8DF8034009
:10AAE000186801900DF10300FCF784FB104901A8E0
:10AAF000FFF799FF0446B0FA80F0400938709DF8DE
:10AB00000300FCF79BFB3CB90A4B34701C70FFF749
:10AB1000B9FF2846FFF7A2FF204603B0F0BD082486
:10AB2000FAE700BF6D2C00206C2C002018BC02003E
:10AB3000316E02006E2C0020014B1878704700BF68
:10AB40006D2C002007B508496846FDF7E4F8019B25
:10AB500013B903B05DF804FBD3E9002090476846C1
:10AB6000FDF7E3F8F3E700BF28BC0200FFF7EABFF8
:10AB700060DF704769DF704761DF704730B5114BA8
:10AB80001B7891B0E3B1104D34240DF1020103A8FC
:10AB9000ADF80240FFF7F0FF70B9294601A8FDF7B4
:10ABA000BAF8029B002BF0D003A8D3E9002190470C
:10ABB00001A8FDF7BAF8F4E7052801D0FCF72AF957
:10ABC00011B030BD6F2C002078BE020030B50546B4
:10ABD00085B00C46002900F099804D4B0B600C228B
:10ABE000002101A800F060FA01238DF806302268E8
:10ABF0008DF80450062301A92020ADF80830FFF796
:10AC0000B9FF60B1FDF7E2F8424B434902464348C1
:10AC10001B1ADB081B0443F00100FBF741FF0C2269
:10AC2000002101A800F040FA01238DF805302268C8
:10AC3000002301A94020ADF80630FFF79BFF60B16B
:10AC4000FDF7C4F8334B3649024634481B1ADB087B
:10AC50001B0443F00100FBF723FF0C22002101A895
:10AC600000F022FA0A2322688DF8043001A901209D
:10AC7000FFF780FF60B1FDF7A9F8264B294902468E
:10AC800026481B1ADB081B0443F00100FBF708FFF2
:10AC90000C22002101A800F007FA4FF4B0632268EB
:10ACA000019301A9A120FFF765FF60B1FDF78EF8C0
:10ACB000184B1D49024619481B1ADB081B0443F0B8
:10ACC0000100FBF7EDFE0C22002101A800F0ECF9D9
:10ACD0009DF8043022686FF3000301A9A0208DF8CD
:10ACE0000430FFF747FF034668B1FDF76FF8094BE3
:10ACF0000E49024609481B1ADB081B0443F00100F9
:10AD0000FBF7CEFE0023184605B030BD0E23FAE750
:10AD1000F022002044B2020040BC0200D4B1020084
:10AD200086BC0200D2BC02001EBD02006FBD020044
:10AD300073B505460668FFF71BFF2B68B342044650
:10AD40001DD91A481A4B1B491B1ADB081B0443F078
:10AD500002000190FBF7A0FE2B68174901983246CC
:10AD6000FBF7A7FE4FF080532A68D3F80C31134944
:10AD700001989B0203F100539A1AFBF791FE2CB93C
:10AD80000F4B01221A70204602B070BD2046FDF71D
:10AD90001DF8074B0B49024604481B1ADB081B042D
:10ADA00043F00100FBF77CFEEDE700BFD4B10200E9
:10ADB00044B20200C2BD0200F1BD020022BE020088
:10ADC0006F2C00204CBE02004BDF70471FB50D4CAE
:10ADD00001A8FFF7F9FF70B9214602A8FCF79BFF15
:10ADE000039B002BF4D00198D3E90021904702A8DF
:10ADF000FCF79BFFF4E7052801D0FCF70BF804B043
:10AE000010BD00BF90BE0200F0B540F2FF7681EAAF
:10AE1000030C16EA115E1EBFB64516EA1355B5427D
:10AE20005AD021EA465141F48011A1FB024723EA9E
:10AE3000465343F48013AE44A0FB03650CF0004C72
:10AE400036197D41A1FB034747F10003A0FB021720
:10AE5000F619654153F10003094218BF46F0010697
:10AE600040F2FE74B3F5007F13D2AEF5806EA645B6
:10AE70002BD24CEA0331280341EA155140EA16501F
:10AE80003203450872F1004250F1000051EB0E51BF
:10AE9000F0BDAEF2FF3EA64517D24CEAC321E80250
:10AEA00041EA555140EA5650F202450872F100421B
:10AEB00050F1000051EB0E51F0BD0CF0004141F09B
:10AEC000FE4141F470010020F0BD1EEA0E0FF4D5E2
:10AED0000CF000410020F0BD16EA115F04BF01F044
:10AEE00000410020004218BF41F0010116EA135F43
:10AEF00004BF03F000430022124218BF43F00103D5
:10AF000006EA1354B44218BF9EEA060F03D00CF0B1
:10AF100000410020F0BD21F0004123F00043B1EBDF
:10AF2000065F06D8B3EB065F03D8002918BF002BD5
:10AF3000C3D140F20001C7F6F8710020F0BD00BF98
:10AF40000B0D40F21E42D21A09DBCB0243EA5050ED
:10AF500040F00040202A28BF2022D04070474900FE
:10AF600060EB0000704700BFC0F3C75191B14200D1
:10AF70004FEA40704FEAD2014FEA310101F16051CE
:10AF8000B2F17F4F38BF704701F1605118BF41F4F3
:10AF90000021704710F00041002070477F2805D83D
:10AFA000034B185C034B5B5C1840704700207047F4
:10AFB000A8BE020028BF0200A0F16103192B98BFB0
:10AFC00020387047A0F14103192B98BF20307047FB
:10AFD0007F2805D8034B185C034B5B5C1840704717
:10AFE00000207047A8BE020028BF0200A0F1610344
:10AFF000192B98BF20387047A0F14103192B98BF37
:10B00000203070477F299ABF017001206FF02E0019
:10B0100070475AB10A787F2A0AD800B1026000212D
:10B0200019605960501A18BF0120704700207047FE
:10B030006FF02E007047000008B5034B5B689B68FB
:10B040001B68984708BD00BF2C23002008B50921C4
:10B05000FFF7F2FF08BD844640EA010313F0030F37
:10B0600018D18446202A0BD32DE9F007B1E8F80760
:10B07000A0E8F807A2F12002202AF7D2BDE8F007E5
:10B08000042A07D351F8043B40F8043BA2F1040220
:10B09000042AF7D2002A05D011F8013B00F8013B41
:10B0A000013AF9D1604670478446002A2DD010F04D
:10B0B000030F04D000F8011B013A26D0F7E7C9B20C
:10B0C00041EA012141EA0141202A12D3A2F12002E2
:10B0D0002DE9F0030B460C460D460E460F468846FA
:10B0E0008946A0E8FA03203AFBD2BDE8F0032032FB
:10B0F0000BD0042A05D340F8041B043A05D0042AD7
:10B10000F9D200F8011B013AFBD16046704700F10B
:10B11000010110F0030F11D010F8012B002A23D0E9
:10B1200010F0030F0AD010F8012B002A1CD010F0E9
:10B13000030F03D010F8012B002A15D02DE9700061
:10B140004FF001324FF0803350F8044BA4EB02056E
:10B1500025EA04051D4000D1F6E7A0F1040070BC0B
:0EB1600010F8012B002AFBD1A0EB0100704774
:08B170007D81020000000000D7
:10B1780035A302000000000079A60200582B002029
:10B18800A9A102000000000077A80200882B002077
:10B1980023A902006C2B0020BD96020000000000CD
:08B1A800FD810200000000001F
:10B1B0007DAB020000000000CDAD020000000000E9
:10B1C000842300204C240020542400208C230020C1
:04B1D0001800000063
:10B1D40046B90200000000004CB902000000000063
:10B1E400D6B902000000030353B9020000000000B6
:10B1F40021BA02000000000027BA0200000000008B
:10B2040057B90200000000005CB902000000000011
:10B21400C2B202000000030398B302000000000061
:10B22400BCB302000000000040B9020000000000AE
:10B23400F3BB02000000030310BC02000000030380
:10B2440069BE02000000030384BE02000000030381
:10B2540026B40200000000003CB40200000000001C
:10B2640094B2020000000000A0B2020004230020F7
:10B27400FFFFFFFFFFFFFFFFFFFFFFFFFFFFFFFFDA
:10B2840000000000000000000000D60106010000DC
:10B294000165020065650200A164020075617274B3
:10B2A4005F6C6F675F6261636B656E6400426163CC
:10B2B4006B656E647320666C757368656400617099
:10B2C40070000000782800207F000000F82800208B
:10B2D4001B5B306D002573001B5B313B33316D000C
:10B2E40025734C6F67732064726F707065642028D7
:10B2F40025642925730D0A003C25733E2025733AE5
:10B304002000202530327800202020007C00256396
:10B31400001B5B313B33306D001B5B313B33326DC3
:10B32400001B5B313B33336D001B5B313B33346DAE
:10B33400001B5B313B33356D001B5B313B33366D9A
:10B34400001B5B313B33376D007761726E696E674A
:10B3540000696E666F00646562756700D4B20200AE
:10B3640015B30200DCB202001DB3020025B30200D3
:10B374002DB3020035B302003DB3020045B3020011
:10B3840000000000A9B302004DB3020055B302004F
:10B394005AB302006170705F627574746F6E004618
:10B3A4006174616C206572726F7200537973746595
:10B3B4006D207265736574006170705F74696D658A
:10B3C4007200010006000000000000004429002073
:10B3D400A16E020052544320696E7374616E6365FA
:10B3E40020616C726561647920696E697469616C4D
:10B3F400697A65642E005254433A20696E6974690F
:10B40400616C697A65642E00000000000338FDD881
:10B41400704730313233343536373839414243445A
:10B4240045467077725F6D676D74000078B10200F5
:10B4340078B1020004000000736F72746C69737455
:10B44400004E52465F53554343455353004E5246B4
:10B454005F4552524F525F5356435F48414E444CEE
:10B4640045525F4D495353494E47004E52465F453E
:10B4740052524F525F534F46544445564943455FD9
:10B484004E4F545F454E41424C4544004E52465F38
:10B494004552524F525F494E5445524E414C004E14
:10B4A40052465F4552524F525F4E4F5F4D454D00DD
:10B4B4004E52465F4552524F525F4E4F545F464F75
:10B4C400554E44004E52465F4552524F525F4E4FC6
:10B4D400545F535550504F52544544004E52465FAA
:10B4E4004552524F525F494E56414C49445F504178
:10B4F40052414D004E52465F4552524F525F494EA3
:10B5040056414C49445F5354415445004E52465FA2
:10B514004552524F525F494E56414C49445F4C4547
:10B524004E475448004E52465F4552524F525F496F
:10B534004E56414C49445F464C414753004E524697
:10B544005F4552524F525F494E56414C49445F4405
:10B55400415441004E52465F4552524F525F44415E
:10B5640054415F53495A45004E52465F4552524F2B
:10B57400525F54494D454F5554004E52465F455213
:10B58400524F525F4E554C4C004E52465F455252FC
:10B594004F525F464F5242494444454E004E524634
:10B5A4005F4552524F525F494E56414C49445F41A8
:10B5B400444452004E52465F4552524F525F4255E8
:10B5C4005359004E52465F4552524F525F434F4EBD
:10B5D4004E5F434F554E54004E52465F4552524FB4
:10B5E400525F5245534F5552434553004E52465FA6
:10B5F4004552524F525F4D4F44554C455F4E4F5448
:10B604005F494E495449414C495A4544004E5246BB
:10B614005F4552524F525F4D555445585F494E490C
:10B62400545F4641494C4544004E52465F45525290
:10B634004F525F4D555445585F4C4F434B5F464105
:10B64400494C4544004E52465F4552524F525F4D5D
:10B65400555445585F554E4C4F434B5F4641494CFA
:10B664004544004E52465F4552524F525F4D555429
:10B6740045585F434F4E445F494E49545F464149E4
:10B684004C4544004E52465F4552524F525F4D4F17
:10B6940044554C455F414C52454144595F494E49DC
:10B6A4005449414C495A4544004E52465F45525212
:10B6B4004F525F53544F524147455F46554C4C00DF
:10B6C4004E52465F4552524F525F4150495F4E4F72
:10B6D400545F494D504C454D454E544544004E52DF
:10B6E400465F4552524F525F464541545552455F5D
:10B6F4004E4F545F454E41424C4544004E52465FC6
:10B704004552524F525F494F5F50454E44494E4750
:10B71400004E52465F4552524F525F4452565F5458
:10B7240057495F4552525F4F56455252554E004E4F
:10B7340052465F4552524F525F4452565F545749E6
:10B744005F4552525F414E41434B004E52465F4566
:10B7540052524F525F4452565F5457495F455252BA
:10B764005F444E41434B004E52465F4552524F5246
:10B774005F424C455F495053505F52585F504B54A1
:10B784005F5452554E4341544544004E52465F4522
:10B7940052524F525F424C455F495053505F4348A9
:10B7A400414E4E454C5F414C52454144595F4558CA
:10B7B40049535453004E52465F4552524F525F42D2
:10B7C4004C455F495053505F4C494E4B5F4449537D
:10B7D400434F4E4E4543544544004E52465F4552F6
:10B7E400524F525F424C455F495053505F5045455C
:10B7F400525F52454A454354454400556E6B6E6F43
:10B80400776E206572726F7220636F64650000004A
:10B814000000000045B402000100000051B4020021
:10B82400020000006FB402000300000090B40200A4
:10B8340004000000A3B4020005000000B4B4020038
:10B8440006000000C8B4020007000000E0B40200D3
:10B8540008000000F8B402000900000010B502005E
:10B864000A00000029B502000B00000041B50200E7
:10B874000C00000058B502000D0000006CB5020079
:10B884000E0000007EB502000F0000008DB502001E
:10B8940010000000A1B5020011000000B8B50200BC
:10B8A40012000000C7B5020013000000DCB502005E
:10B8B40080000000F0B502008100000011B6020013
:10B8C400820000002DB602008300000049B6020089
:10B8D4008400000067B602008500000088B60200FC
:10B8E40086000000ADB6020090000000C4B602005D
:10B8F40091000000E2B602009200000000B70200CE
:10B904000082000015B702000182000033B7020074
:10B91400028200004FB70200008400006BB70200EF
:10B92400018400008FB7020002840000B9B702004E
:10B9340003840000DEB7020011121314636C6F63FA
:10B944006B00434C4F434B004750494F5445005004
:10B954005253005541525400554152544500416CD4
:10B964006C6F6361746564206368616E6E656C3AC4
:10B974002025642E0046756E6374696F6E3A202527
:10B98400732C206572726F7220636F64653A202590
:10B99400732E0041737369676E6564206368616E1A
:10B9A4006E656C3A2025642C206576656E7420657E
:10B9B4006E6420706F696E743A2025782C2074614F
:10B9C400736B20656E6420706F696E743A202578FD
:10B9D4002E00505049006E7266785F7070695F6324
:10B9E40068616E6E656C5F616C6C6F63006E72662D
:10B9F400785F7070695F6368616E6E656C5F6173B8
:10BA04007369676E006E7266785F7070695F6368F1
:10BA1400616E6E656C5F656E61626C650053414179
:10BA240044430054494D455200436F6E6E65637440
:10BA3400656400446973636F6E6E65637465640066
:10BA4400414443206576656E74206E756D6265723F
:10BA54003A202564005265636569766564204C4527
:10BA640044204F4E21005265636569766564204C1D
:10BA74004544204F464621004E6F726469635F411E
:10BA8400444300426C696E6B79206578616D706C1B
:10BA94006520737461727465642E000000000002F6
:10BAA40000000300010006000090004000040000B4
:10BAB40073645F626C655F6761705F646174615F2A
:10BAC4006C656E6774685F7570646174652829209D
