:020000022000DC
:1060000000000120756302005D6302005F6302000F
:106010006163020063630200656302000000000028
:1060200000000000000000000000000067630200A4
:1060300069630200000000006B6302006D630200F0
:10604000398602006F630200BD8A02006F6302009E
:106050006F6302006F63020039890200A995020094
:106060006F630200519A02006F6302006F630200C7
:106070006F6302006F6302006F6302006F630200D0
:106080006F630200817702006F6302006F6302009A
:106090006F6302006F630200F5AF02006F630200DE
:1060A0006F6302006F6302006F6302006F630200A0
:1060B0006F6302006F630200000000000000000038
:1060C0006F6302006F6302006F6302006F63020080
:1060D0006F6302006F6302006F6302000000000044
:1060E00000000000000000000000000000000000B0
:1060F00000000000000000000000000000000000A0
:10610000000000000000000000000000000000008F
:10611000000000000000000000000000000000007F
:10612000000000000000000000000000000000006F
:10613000000000000000000000000000000000005F
:10614000000000000000000000000000000000004F
:10615000000000000000000000000000000000003F
:10616000000000000000000000000000000000002F
:10617000000000000000000000000000000000001F
:10618000000000000000000000000000000000000F
:1061900000000000000000000000000000000000FF
:1061A00000000000000000000000000000000000EF
:1061B00000000000000000000000000000000000DF
:1061C00000000000000000000000000000000000CF
:1061D00000000000000000000000000000000000BF
:1061E00000000000000000000000000000000000AF
:1061F000000000000000000000000000000000009F
:10620000354936480A1A02D0072291438D4634494F
:1062100034480A1A06D00722914381F309880222E2
:1062200082F3148830483149314A00F044F831484B
:106230003149324A00F03FF831483249324A00F0E1
:106240003AF832483249334A00F035F83248334997
:10625000334A00F030F833483349344A00F02BF821
:1062600033483449344A00F026F83448344900228F
:1062700000F02CF833483449002200F027F8334866
:106280003349091A082902DB002202604160314AC1
:1062900090471F481F49884205D00268043003B464
:1062A000904703BCF7E700208646EC46002000211B
:1062B000294A9047FEE7884207D0521A05D0037852
:1062C00001300B700131013AF9D17047884202D098
:1062D00002700130FAE770470000012000E0002062
:1062E0000000012000000120F8C30200F02200207D
:1062F00048230020D0630200D063020062B4020091
:10630000F8C30200F0220020F022002068B502004D
:1063100068B5020068B5020068B5020068B5020001
:1063200068B5020068B5020068B50200F6C3020055
:1063300050C40200482300204823002048230020A6
:10634000982C0020982C0020982C0020982C0020BD
:10635000984C00209D630200219E0200FEE7FEE7AC
:10636000FEE7FEE7FEE7FEE7FEE7FEE7FEE7FEE705
:1063700000F002B8FFF7FCBF0F484FF00701884359
:1063800085460E4880470E48016841F4700101605F
:10639000BFF34F8FBFF36F8FFFF732BF09480A4932
:1063A0000A4A884207D0521A05D0037801300B7090
:1063B0000131013AF9D1704700000120018102004A
:1063C00088ED00E068B50200F0220020F0220020F5
:1063D000F0B595B01D46164608460C4601F082FD04
:1063E0001A9B0D93CDE9086500252B46082205A9C7
:1063F00020460A958DF82C500C9501F090FD079BD6
:106400000293069B03939DF814308DF8115003F00E
:106410000302012A1DD1BDF81420059DC3F3C20358
:10642000C2F383168DF81030B20008230EA920465F
:1064300001F075FDC5F3952508AB0093324602AB1C
:106440000EA9284600F0E4FB204601F04FFD15B0F0
:10645000F0BD022AF8D1BDF81650C3F3C203C5F34C
:1064600089158DF810300827082D2E4628BF0826DC
:106470003B4632460EA9204601F051FDAD1B08AB4C
:1064800002AA31460EA8374400F026FC002DEBD1BD
:10649000DAE70000014B01221A70704789230020BF
:1064A0007047000070B5124D06460FCD88B06C469F
:1064B0000FC495E80F00002E84E80F004FF0FF3363
:1064C0004FF00602CDE90023CDE90233094A0A481C
:1064D0004FF0EB7308BF00226946069302F044F8C0
:1064E00008B100F0EDFD054B1E7008B070BD00BF97
:1064F00068B5020095640200F022002048230020C5
:1065000007B5044B0093044A4023FFF761FF03B033
:106510005DF804FB1D6502004923002038B50D4BD2
:106520000D4D002018700D4804782D5DD2B21C4628
:1065300065B1043002F018FF08B100F0C1FD084B4E
:106540001A7812B12378002BFBD038BD0C3002F042
:10655000E3FCF1E789230020282A0020F022002014
:106560004823002008B50848084A0378D35C3BB1AB
:10657000043002F083FEBDE808400020FFF792BF20
:106580000C3002F067FCF6E7F0220020282A0020F9
:106590000120FFF787BF000008B5FFF7F9FF0448A7
:1065A000042100F09DFA034B01225A7108BD00BF7F
:1065B00058B5020004230020037813F0040216D01B
:1065C00003F00303012B03D0022B09D001207047F5
:1065D0000A6800880232C0F3831002440A60F5E7BB
:1065E0000B684288023303EB92130B60EEE7104610
:1065F000704700002DE9F04F87B000230446861C49
:106600000DF107000F4615468DF8073000F048FFE2
:10661000454801683960D0E90132134401335B1AFF
:10662000824600F21C4700F5836900F21448B34229
:106630001CD30020002D73D004F00F039B0143F006
:10664000050363F30F00DAF80020DAF8083013408E
:10665000033316444AF823009DF80700CAF8006087
:1066600000F042FF012007B0BDE8F08F012138465D
:1066700001F063F9484601F078F9404601F075F9F8
:10668000DAF80400DAF808B0029000EA0B000330F0
:106690000AEB800002A9FFF78FFF029B50BB0BEAB9
:1066A00003020AEB820203F1020CD2680392013367
:1066B00003EA0B0B0AEB8B0B02F00302012ADBF857
:1066C0000C10CDF808C023D0022A16D083464046CD
:1066D00001F04EF910B1029BCAF804305946384611
:1066E00001F02BF9DAE901231344DAF80020013331
:1066F0009B1A9CE70BEA0300C9E7BDF80E30C3F311
:10670000891303334FEA114B0CEB93030293DEE73B
:10671000BDF80C30C3F383134FEA114B6344F5E724
:10672000A40544F006008EE75C2400200B4B0C48C7
:10673000FF2210B59A600022C3F81824C3E9002292
:10674000C3F8142483F8202401F085FB044610B913
:10675000044801F02DFC204610BD00BF5C24002041
:10676000B4B40200BCB5020030B50A4C71B10A4A9B
:106770000A49121BD20800239A4201D1002030BDE1
:1067800031F82350854202D00133F5E7034654F82F
:106790003300F4E7C8B4020058B50200F02200202C
:1067A000094B013903EBC000032909D8DFE801F0E8
:1067B0000A02040604207047007970474079704748
:1067C0000020704702207047C8B40200034BD3E991
:1067D0000030C31A58425841704700BF5C24002063
:1067E0002DE9F04387B0FFF7F1FF0646002840F09F
:1067F000F9807D4DC5F81804BFF34F8F6B68AC6806
:1068000002932340033305EB830002A9FFF7D4FE74
:10681000029B18B1D5F81824002A5FD004EA0302BD
:10682000991C013305EB8202234005EB8303D268F8
:10683000DB68049302F00303022B0392029160D100
:10684000BDF80E306948C3F38917502FB84628BFEA
:106850004FF0500868F38F1308F10801ADF80E30BF
:1068600001F011FB0646002800F0A78001F03AFB7A
:106870000023082203A9304601F047FB029924EACD
:1068800001020132B8EB820F4FEA820332D95FFA7C
:1068900088F85BB32140DCB2A8EB040803315FFA4F
:1068A00088F9A046524C05EB810108234246304648
:1068B00001F02BFB34B108F108034A46214630466B
:1068C00001F023FB029B033703EB97070297D5F8F0
:1068D0001834002B49D1D5F8104459E02A689A425F
:1068E0008FD86A60304607B0BDE8F08340491C4647
:1068F0009946DAE70C40E11C0823424605EB81018A
:10690000DDE7012B59D1BDF80C303848C3F38311B2
:10691000062928BF062161F3891302318900ADF8E9
:106920000C3001F0B0FA0646002846D001F0DAFA41
:106930000023082203A9304601F0E7FA0027BDF83A
:106940000C20C2F38312BB00974203F10803BED2AE
:1069500002994A1C21400331029205EB8101042275
:10696000304601F0D2FA0137E9E7304601F0BEFACD
:10697000FFF72CFF80F00100C6B2B3E7E3685B7954
:1069800023B1236831461B6820469847E3681C689A
:10699000002CF3D1304601F0A9FA0DF107008DF873
:1069A000074000F07DFDD5F818340BB9029B6B60F1
:1069B0009DF8070000F098FDDAE7D5F8104454B9C7
:1069C0000C4B0D480D49C01AC008000440F00200ED
:1069D00000F062F8CCE7236820469B689847E3689C
:1069E0001C68ECE700267DE75C240020B4B40200BC
:1069F00068240020C8B4020008B50200A5B5020052
:106A00002DE9F74F224D04460F46924601A9012277
:106A10001846D5F808909B46FFF7ECFD20B3019E81
:106A20004FF00008B21CD84508EB020126D11948E6
:106A3000002100F053FF80F31000000440EA1440EE
:106A4000E400731C04F0380403EA090306EA0906AB
:106A500044F0010405EB8303033644EA881444EA56
:106A60008724D86045F8264095F820341BB1FFF7FD
:106A7000B7FE0028FBD103B0BDE8F08F09EA0101A1
:106A800005EB81015AF82830CB6008F10108CAE70C
:106A90005C2400207828002000231A46FFF7B0BFAE
:106AA00007B50123019201AAFFF7AAFF03B05DF821
:106AB00004FB07B5CDE9002302236A46FFF7A0FFD8
:106AC00003B05DF804FB1FB5CDE90123069B0393DA
:106AD00001AA0323FFF794FF05B05DF804FB000053
:106AE00030B50F49D1F8102403460020144634B9BC
:106AF000DC6820714AB9C1F81034226030BDE46806
:106B00002579854206D02468F1E7D26811682160B2
:106B10001360F3E701300A28E8D14FF0FF30EDE7CA
:106B20005C240020094A38B50123D2F8104482F8C9
:106B300020341D4604B938BDE3685D7123682046E2
:106B40005B689847E3681C68F4E700BF5C2400209A
:106B500007B503460846197A052911D05B7A2BB18F
:106B6000094A0A49019000F066FF0198084901901E
:106B700000F061FF019803B05DF804EB00F050BF36
:106B8000002AF8D0F2E700BFC8B50200CDB5020078
:106B9000EDB5020030B5C38885B004460D4633B16B
:106BA000144A00921449154A284600F044FF217AFD
:106BB00005291DD0637A4BB1A088FFF7F1FD104B7A
:106BC000104953F82020284600F035FF227A0E4B5A
:106BD000A08853F8222003920021FFF7C5FD039AF5
:106BE0000A490346284605B0BDE8304000F023BFFF
:106BF00005B030BDC8B50200D8B50200D0B502005E
:106C000054B60200CDB5020078B60200F0B502001D
:106C10002DE9F04385B01F460C9D002395F80C909C
:106C20002B7306460C46904629463846FFF7B2FFBE
:106C3000B8F1060F09D8DFE808F00412181F28334E
:106C400040003146284600F0F6FE0022294638462C
:106C5000FFF77EFF85F80C9005B0BDE8F083226851
:106C60003146284600F0E7FEEFE7D4E9002331463D
:106C7000284600F0E0FEE8E7A36800933146D4E937
:106C80000023284600F0D7FEDFE7E3680193A368FE
:106C900000933146D4E90023284600F0CCFED4E727
:106CA00023690293E3680193A36800933146D4E912
:106CB0000023284600F0BFFEC7E7636903932369FA
:106CC0000293E3680193A36800933146D4E900235B
:106CD000284600F0B0FEB8E708292DE9F74F8046B6
:106CE0000E4617461C463CD8002593F80C901D73A1
:106CF00019461046FFF74EFFDFF888A0DFF888B08E
:106D0000AE4231D918F805205946204600F093FECE
:106D10000135082DF4D11949194DDFF870A020462E
:106D200000F089FE4FF0000B5E4522D918F80B20C9
:106D30007E2A05D81046019204F002FB019A00B9A0
:106D40002E225146204600F076FE0BF1010BBBF1DE
:106D5000080FE9D1012221463846FFF7F9FE84F8F1
:106D60000C9003B0BDE8F08F5146204600F063FE62
:106D7000CEE72946204600F05EFEE6E704B60200B4
:106D800002B6020000B60200FAB5020006B6020022
:106D9000C30710B507D4F023054A4008145C23400C
:106DA0001943115410BD0901C9B20F23F4E700BF04
:106DB0004829002030B5094B1C78094B196800237D
:106DC0009C4202DC0022104630BD11F8335085424F
:106DD00001EBC302F7D00133F2E700BF182900200E
:106DE0005829002013B504460191FFF7E3FF38B19D
:106DF00043682BB10199204602B0BDE81040184706
:106E000002B010BD034B044819680022490800F085
:106E100056BA00BF1C2900202029002010B5C0B29E
:106E2000FFF7C8FF0446007801F07CFD63785A1E26
:106E300053425341834208D1044BD3E90023134307
:106E400003D1BDE81040FFF7DDBF10BD4029002091
:106E500037B54308354AD35CC2074CBF1B0903F062
:106E60000F0304460D46042B35D8DFE803F0032555
:106E70002C383C0079B30121FFF78AFF00230DF184
:106E800007008DF8073000F00BFB0120A4F1200370
:106E9000C4F12001264A20FA01F100FA03F30B4362
:106EA000A040D2E9004120430B43C2E900039DF812
:106EB000070000F019FB0EE0002918BF0221204650
:106EC000FFF766FF07E041B10321FFF761FF0121F2
:106ED0002046FFF787FF03B030BD0121EFE700290F
:106EE000F9D10421EBE709B10321E8E7FFF750FFEF
:106EF00029462046FFF776FF0DF107008DF8075071
:106F000000F0CEFA0120A4F12003C4F12001084AC8
:106F100020FA01F100FA03F30B43A040D2E900414B
:106F200024EA000021EA0303BFE700BF482900204C
:106F3000402900202DE9F041124E134F00243378F0
:106F4000A34208DC114BD3E90023134318D0BDE85A
:106F5000F041FFF757BF3D6805EBC40815F8340052
:106F600001F0E0FC98F801305A1E53425341181AC0
:106F70004142414115F83400FFF76AFF0134DEE772
:106F8000BDE8F08118290020582900204029002060
:106F9000092AF7B505460C4616463CD901F0E0FB38
:106FA000D8B11E4B1E481D601E4B1F4F1C701F4B3F
:106FB000002110221E6004F0F1F91D4B0020002179
:106FC000C3E90001013CE4B20326FF2C0BD1194AAE
:106FD0001948002100F068F903E001F089FB00285E
:106FE000DFD003B0F0BD9DF8063015F834008DF801
:106FF000046005EBC40223F007038DF8063001A9F5
:1070000093788DF805303A4601F0B4FB013CE4B2C8
:107010000028DAD0E5E70720E3E700BF5829002081
:1070200048290020182900201D6E02001C2900207C
:1070300040290020356F020098B6020070B5084D57
:10704000084E00242B789C4201D3002070BD336889
:10705000012113F8340001F0FFFB0134F2E700BF17
:10706000182900205829002073B5114D114E002415
:107070002B789C4214D300230DF107008DF80730C4
:1070800000F00EFA0C4B00210020C3E900019DF82E
:10709000070000F029FA094800F029F902B070BD94
:1070A000336813F8340001F01BFC0134E0E700BF43
:1070B00018290020582900204029002020290020DC
:1070C0001FB50021039001AA44F20100CDE901118E
:1070D00000F004F805B05DF804FB000010B572B6CE
:1070E000FFF720FDFFF77CFB0028FBD1104B114C74
:1070F0001149E41AE408240444F00100FFF7CCFC31
:107100000E4B1B68DB0700D500BE0D4944F00200A2
:10711000FFF7C2FCBFF34F8F0A490B4BCA6802F45A
:10712000E0621343CB60BFF34F8F00BFFDE700BFAA
:10713000C8B4020008B502009CB60200F0ED00E001
:10714000A8B6020000ED00E00400FA05D0E9022331
:10715000D1E90201994208BF90422CBF01200020D2
:107160007047000008B50B4800F0F5FA0A4B0B49D0
:10717000D3E900231218D1E9000143F100038B4247
:1071800008BF824203D212F1807243F1000310461D
:10719000194608BD0C23002060290020D8290020B2
:1071A00037B505460C460A4801A900F006FB60B158
:1071B0000570446001A9064800F029FB18B1054894
:1071C00000F0CEFA002003B030BD0420FBE700BF82
:1071D000C42900200C23002038B5184B1B78044626
:1071E00013B90025284638BD0028FAD0037F03F0E4
:1071F000FF05002BF5D0FFF7B5FFD4E90223994234
:1072000008BF904214D3236903B92377D4E905302A
:10721000984721690029E4D0237F03F0FF05002B64
:10722000DFD0D4E90223521843F10003C4E902235A
:107230000348214600F0DBFED4E700BF68290020A8
:10724000C4B6020013B5114B114918680190082308
:107250001048582200F09EFA044698B90E4A0F488A
:1072600001A900F065F9044660B90C48012100F05D
:1072700055FA01230A4A0948194600F0B7F9094BA3
:1072800001221A70204602B010BD00BFC0B6020035
:107290006C290020C4290020097302000C2300205F
:1072A000FFFF7F00682900203AB103685A614A1E37
:1072B000514251411961002070470720704738B58D
:1072C000037F04460D4683B98261FFF74BFF2369B4
:1072D000401941F10001C4E9020103B125612146D1
:1072E0000020BDE83840FFF75BBF002038BD002319
:1072F000014603770120FFF753BF0000014800F06B
:107300002ABA00BF0C2300202DE9F04F85B080463B
:1073100000F00CFA40B15A4AD2E9003113F18073FF
:1073200041F10001C2E900310021404600F00DFAB0
:1073300038B1544E336823B13068FFF74DFF002356
:1073400033600121404600F000FA20B1FFF70AFF48
:107350004D4BC3E900014D484A4F4D4EDFF838917F
:1073600003A900F064FA002845D1DFF82491454EC6
:10737000DFF828A1484600F050FE3368002875D099
:107380007BB13368D0E90201D3E90223994208BFF7
:1073900090422DD233681B7F1BB13168484600F004
:1073A00026FE484600F033FED0E902B307460193BB
:1073B000FFF7D8FE019BBBEB000463EB0105012C3A
:1073C00075F1000345DBB4F5350F40D3FFF796FFA9
:1073D000304A02444FF496030021504600F026F94B
:1073E00000283ED1336813B9404600F0F7F8376003
:1073F00005B0BDE8F08F0378012B1DD0022B09D119
:107400004FF0000A304600F002FE002834D080F829
:107410001CA0F7E73BB941680B7F23B901230B7729
:10742000304600F0E4FD03A9184800F02BFA03A948
:10743000164800F0FCF996E741683B68994202D192
:1074400000233B60EFE7304600F0EAFDEBE7BA6867
:10745000C0E70021504600F06EF93846FFF7BCFE49
:1074600001E00D28F9D00023336083E7002BBFD162
:10747000404600F0B7F8BBE7012389F80030D2E7B7
:1074800060290020E0290020D8290020C4290020FC
:10749000C4B60200FFFFB400682900200C230020BE
:1074A00070B5EFF3108672B60C4A946801239CB94C
:1074B00093600B4B0B4DD3F8801029401160C3F83B
:1074C0008050D3F8841051604FF0FF32C3F884200D
:1074D000047006B962B670BD0370FAE7E4290020B3
:1074E00000E100E0FC06FFBD084B9A6810B55AB1F8
:1074F00050B9EFF3108172B6054A1C6814605C68DD
:107500005460986001B962B610BD00BFE429002044
:1075100000E100E0435882B03BB1002343504358A0
:107520000193019B012002B070471846FBE7000061
:10753000F8B5224B4679224C43F82620214A224BAB
:107540009B1A04EBC602DB0812791B04F70032B168
:1075500043F002001D49FFF79FFA0820F8BD0268BA
:107560000D88C2F8085590F9045002798978002DE9
:10757000ADBF05F1604CDFF85CC002F00F0E0CF5FA
:10758000614C4FEA4111C9B2B4BF0CF80E108CF82F
:1075900000136D090121DFF840C002F01F0201FA5B
:1075A00002F24CF82520E21944F83600117143F03C
:1075B00003000749FFF770FA0020CFE7F829002001
:1075C000F0290020C8B4020018B50200D0B60200AD
:1075D000F2B6020014ED00E000E100E003680122D1
:1075E0001A607047036801225A60704773B501F151
:1075F0005005AD000068ADB24FF480348C400026D9
:10760000C0F80843C0F84843465101F5A8714559F0
:10761000019522F07F42019D40F82120C0F84443AB
:107620000BB1C0F8044302B070BD00002DE9F74F64
:107630000D4622F07F4402684FF4803705F1500672
:107640008F408046B60002EB8500C2F84873B6B2A0
:10765000C2F80873D2F8041599464FF0000BD0F821
:107660004035C0F8401542F806B05B1A92590092B6
:1076700023F07F43012B009A4FEA850A0CD1264B59
:107680004FF4806043F001039847D8F8003043F886
:1076900006B09B590193019BD8F80010D1F80465FE
:1076A000C1F84473A31B23F07F43012B1CD11A4B59
:1076B00005F5A875013443F0010341F825404FF466
:1076C00080609847D8F80030D3F804359E4209D13D
:1076D000D8F800300020C3F84473C3F8047303B033
:1076E000BDE8F08F0D20FAE78A44C9F1FF13CAF80C
:1076F0004045D1F80405221A013A22F07F4203F5F1
:107700007F439342EED3002AE2D10134CAF84045C8
:10771000D1F804359842DAE710B702000368022274
:10772000C3F8442309B1C3F80423704700684FF439
:107730008271FFF7EFBE4FF4803303FA01F1036863
:10774000C3F84813C3F80813704750318900006824
:1077500089B2FFF7DFBE0368D3F804057047000065
:1077600090F9043001215A0903F01F0301FA03F3D1
:107770004032024941F82230704700BF00E100E08A
:10778000024B034A1B681068184700BFF829002005
:10779000F029002010B561B1B2FBF3F403FB14240F
:1077A000A4B244B9C0E9001484608281C381204638
:1077B00010BD0E20FCE70920FAE737B550E8013F7D
:1077C0009DB2C48925448489A54228BF2D1B048904
:1077D000A54202BFBFF32F8F002207E0C5EA0305D1
:1077E00040E80154002CE9D14FF001028DF803204C
:1077F0000193019B9DF803200B6002F0FF0322B16F
:107800000B880068184403B030BD1846FBE70A88AF
:107810004B889A4209D150E8012FC2EA024240E85F
:107820000123002BF7D1012070470020704737B5A6
:1078300050E8023F1FFAA3F5C488A54202BFBFF378
:107840002F8F00220DE0C48925448489A54228BFDA
:107850002D1BC3EA054540E80254002CE8D14FF047
:1078600001028DF803200193019B9DF803200B601A
:1078700002F0FF0322B14B880068184403B030BD0A
:107880001846FBE70A884B889A4209D150E8022F34
:10789000C2EA224240E80223002BF7D101207047C0
:1078A0000020704701F01F024B090121914000EBBD
:1078B000830000F01EB801F01F0301229A404B091B
:1078C00000EB8300D14300F02CB84B0901F01F01FD
:1078D00050F82300C84000F00100704710B503467F
:1078E00053E8000F0A4643E8002494F0000FF7D154
:1078F00010BD10B5034653E8002F42EA010043E8EB
:10790000000494F0000FF6D110BD10B5034653E803
:10791000000F00EA010243E8002494F0000FF6D1C2
:1079200010BD10B5034653E8002F02EA010043E8FA
:10793000000494F0000FF6D110BD10B5034653E8D3
:10794000002F02EB010043E8000494F0000FF6D191
:1079500010BD10B5034653E8002FA2EB010043E829
:10796000000494F0000FF6D110BD0121FFF7C1BF54
:107970000021FFF7CABF10B590B1D0E9012301681B
:107980009B1ADBB20A60013BDBB2FF2B026802D11B
:107990000020107110BD11684C1C14600B70F2E7D0
:1079A0000E20F7E737B5054600240DF107008DF8E6
:1079B0000740FFF775FD2A686B68116899420ED978
:1079C000481E106011F8014CEB68298A01FB043451
:1079D000AB6811791B1ADBB2994238BF13719DF85D
:1079E0000700FFF781FD204603B030BD37B50546DF
:1079F00000230DF107000C468DF80730FFF750FD0E
:107A00002A681368591C1160E968641A298AB4FB52
:107A1000F1F41C709DF80700FFF766FD03B030BD60
:107A2000826810B504462AB1436901680069984725
:107A30000023A36010BD0EB403B5039921B104ABBC
:107A400001AA019300F076F802B05DF804EB03B0F0
:107A500070470A2938B504460D4602D10D21FFF7BB
:107A6000F8FFA3682268591CA160D554D4E90132FB
:107A70009A4204D32046BDE83840FFF7D1BF38BD55
:107A80002DE9F84F9846DDE90A43154682460F4630
:107A90000A464FF00109AA420FD2C14538BFC1467C
:107AA00013F0010B01D16CB900240126B8F1010FCC
:107AB0001BD908F1FF386E43F8E709F10109B2FB61
:107AC000F5F2E8E79B070ED5B8F1000F0CBF3026A2
:107AD0002026A145E9D2013C31465046FFF7B9FFC7
:107AE000002CF6D1E0E72026F3E7B7FBF6F39D4242
:107AF000E1D9DFF83C80B7FBF6F3504618F80310E5
:107B000006FB1377FFF7A5FF3346AB42B6FBF5F64E
:107B1000F1D2BBF1000F02D00CB1A14501D3BDE8F9
:107B2000F88F20215046013CFFF793FFF4E700BF98
:107B300016B702002DE9F74F05461746884600297B
:107B400000F0428118F8011B49B92B7B002B00F093
:107B50003B81284603B0BDE8F04FFFF761BF252900
:107B600040F0B780002698F800302D2B424608F1EF
:107B7000010823D0302B24D02B2B25D000242A2BF6
:107B800002F1010123D13B681A1D1B683A601C44B5
:107B90000A4613782E2B26D101324FF0000A1046E8
:107BA00010F8011BA1F1300CBCF1090F1DD80A23FC
:107BB00003FB0A13A3F1300A0246F0E746F0010680
:107BC000D1E746F00206CEE746F00406CBE711F80F
:107BD000013CA3F130000928DBD80A2202FB04345F
:107BE000303C0A46CBE74FF0000A12F8011B01F0C7
:107BF000FB0068289046F8D0782909D86F290CD85E
:107C0000632962D022D8252963D0582900F08880C2
:107C100098F80030002B95D197E770390829F7D8EC
:107C200001A353F821F000BFA37D0200117C0200E4
:107C3000117C0200317D0200117C02000F7D0200E8
:107C4000117C0200117C0200217D0200642901D018
:107C50006929DDD13A68D2F80090111D89EAE972EC
:107C60003960A2EBE9724FF0010B092A35DCD345EC
:107C700038BFD3462CB1B9F1000F01DB720700D534
:107C8000013CB30702D5BAF1000F03D0F00701D4CD
:107C90004CBB0024B9F1000F2DDAC9F100092D21E8
:107CA0002846FFF7D6FE06F00302022A04D1BAF1F5
:107CB000000F01D11CBB0024CDE9004653460A2227
:107CC00049462846FFF7DCFEA2E73B681A1D1978F3
:107CD0003A602846FFF7BDFE9AE70A230BF1010B35
:107CE000B2FBF3F2C1E7A345D4D220212846013CE0
:107CF000FFF7AFFECCE77107D5D52B21D0E7A34521
:107D0000DAD230212846013CFFF7A3FED2E73968DA
:107D1000CDE900460A1D3A6053460A220968D0E7B9
:107D200039680A1D3A60CDE9004653461022F5E74E
:107D30003B681A1D3A6016F00106D3F8009028D16E
:107D4000B9F1000F03D0484603F05BFB0646B4428E
:107D500000D904BB09F1FF3919F8011F00293FF4CC
:107D600057AF2846FFF775FEF6E728460136FFF7BE
:107D700070FE19F806100029F7D1A642BFF448AFEB
:107D8000002C3FF445AF20212846013CFFF761FE5F
:107D9000F3E70026EDE720212846013CFFF759FED6
:107DA000D5E73B681A1D3A60302128461C68FFF76A
:107DB00050FE78212846FFF74CFE00220823CDE92B
:107DC0000032214610227CE703B0BDE8F08F00BFEF
:107DD0002DE9F84FB0F806A04579D2F800B09DF82B
:107DE00028900AFB05F5043D88460BEB0301A942E8
:107DF00003F1040488BFA5EB030BB4FBFAF60746B6
:107E00000AFB1644C2F800B04EB9AAEB04055D4562
:107E100028BF5D46BBF1000F04D1BDE8F88F3F6875
:107E2000013EF1E7043408EB06003C442A46B9F170
:107E3000000F0DD02146ABEB050B03F086FADA45B7
:107E40002E443F6855464FF0000428BF5D46E1E7E9
:107E500001462046EFE7FFF78EBDF8B546790146AB
:107E6000721E0546002393422D6803D30024A642C8
:107E700002D8F8BD0133F6E70F682846FFF7B6FDD4
:107E800001343946F3E72DE9F843068ACD1C07464D
:107E9000FFF788FD043E35440446B5FBF6F5F0B126
:107EA0004FF48073EDB28380C680013D0760814648
:107EB0004FF00008A84512D23846FFF773FD06467A
:107EC00048B163790133637108F10108C9F8000012
:107ED00007608146EEE72046FFF7BFFF34462046A5
:107EE000BDE8F88301210430FFF727BD10B501215B
:107EF00004460430FFF72DFD10F0FF0F04D120469B
:107F0000BDE81040FFF7A9BF10BD1FB503920022C6
:107F1000009203AAFFF75CFF05B05DF804FB1FB5F4
:107F200003920122009203AAFFF752FF05B05DF809
:107F300004FB41DF70470000064B10B500241C70A5
:107F4000054B1C60BFF35F8F0449054800F039F80A
:107F5000204610BD042A0020082A002030B7020065
:107F6000FC29002007B500230DF107008DF807302C
:107F7000FFF796FAF1EE103A23F09F03E1EE103A84
:107F8000BFF35F8F094B4022C3F884219DF807009F
:107F9000FFF7AAFA03F014F820B1FFF7CAFF03B005
:107FA0005DF804FB20BF40BF20BFF8E700E100E020
:107FB000836800225A60C3E904229A60DA601A607A
:107FC00070470B684A684360934208BF0023016012
:107FD00008BF43607047436843B1026891685268C4
:107FE0000B449342436004BF00234360704770B565
:107FF000446806460D46206818B1B368294698477C
:1080000018B923682B60256070BD2468F3E74368C6
:10801000186808B102681A607047436818687047AA
:108020004368186800B97047884203D102681A6033
:108030000120704703460068F4E7000010B50D49C1
:10804000A1F59472914201D800200FE08C1AE30F41
:1080500003EBE4035B1002EBC30452F833308342BA
:1080600005D802D204F10802ECE7606810BD214691
:10807000E8E700BF3CBC020008B5FFF7DFFF024B9A
:10808000002808BF184608BDFFBA02000C4B1B7839
:10809000062B10D10B4B1B681A070CD10A4B186822
:1080A00000F0F003302B08D000F0E000A0F1400316
:1080B000584258417047002070470120704700BF68
:1080C000E00F00F0E40F00F0E80F00F0094B1B7820
:1080D000062B0CD1084B1B681A0708D1074B1868F0
:1080E00000F0F000A0F130035842584170470020E2
:1080F000704700BFE00F00F0E40F00F0E80F00F061
:1081000008B5FFF7C3FF28B17D4B7E4A1B68C3F358
:1081100004231360FFF7DAFF10B17B4B7B4A1A6030
:10812000FFF7B4FF28B17A4B7A4A1B68C3F3423396
:108130001360FFF7CBFF20B1774AD36823F0807339
:10814000D360FFF7A3FF40B14FF080430022C3F894
:108150000C21C3F81021C3F83825FFF7B7FF10B181
:108160006E4B03221A60FFF7B1FF40B16C4B052242
:108170001A6001229A6700229A603F225A60694B76
:108180001B78062B50D1684B1B6819074CD1674BE5
:108190001B6803F0F003502B46D14FF08052644B24
:1081A000D2F80414C3F82015D2F80814C3F8241523
:1081B000D2F80C14C3F82815D2F81014C3F82C15F3
:1081C000D2F81414C3F83015D2F81814C3F83415C3
:1081D000D2F81C14C3F84015D2F82014C3F8441583
:1081E000D2F82414C3F84815D2F82814C3F84C1553
:1081F000D2F82C14C3F85015D2F83014C3F8541523
:10820000D2F83414C3F86015D2F83814C3F86415E2
:10821000D2F83C14C3F86815D2F84014C3F86C15B2
:10822000D2F84424C3F87025FFF730FF28B1414B42
:10823000414A1B6803F04F031360FFF727FF48B163
:108240004FF08043D3F80024D20744BF6FF00102FF
:10825000C3F80024394B1B68062B08D1384B1B6828
:10826000062B01BF374A136843F480631360364A14
:10827000D2F8883043F47003C2F88830BFF34F8FD0
:10828000BFF36F8F4FF01023D3F80022002A03DBD7
:10829000D3F80432002B2FDA2C4B0122C3F804252B
:1082A000D3F80024002AFBD04FF010221521C2F889
:1082B0000012D3F80024002AFBD04FF0102315221F
:1082C000C3F80422214B1A46D3F800140029FBD02E
:1082D0000021C3F80415D2F80034002BFBD0BFF303
:1082E0004F8F19491A4BCA6802F4E0621343CB60FE
:1082F000BFF34F8F00BFFDE7164B174A1A6008BD4A
:10830000240300104035014074C007400DF0ADBAA1
:10831000440200103C050040F0ED00E0A0050040E4
:1083200010560040E00F00F0E40F00F0E80F00F0FE
:1083300000C0004058020010E40E00403001001060
:10834000340100103C17004000ED00E000E0014067
:108350000400FA05142300200090D003044B1A5C9B
:10836000012393404FF0A042C2F80C35704700BF84
:108370003CBC0200044B1A5C012393404FF0A04226
:10838000C2F80835704700BF3CBC020008B50020A9
:10839000FFF7F0FF0120FFF7EDFF0220FFF7EAFFF4
:1083A000BDE808400320FFF7E5BFC20708B5014656
:1083B0000CD54FF0A0430322C3F84427C3F8482745
:1083C000C3F84C27C3F85027FFF7E0FF8B070AD507
:1083D0004FF0A0430C22C3F83427C3F83827C3F862
:1083E0003C27C3F8402708BD38B5074C051E04F1EB
:1083F000080318BF1C4623682BB11A6822605B680B
:1084000028469847F7E738BD142A002020B9054BC5
:1084100001225A70FFF7E8BF012802D1014A90708B
:10842000F8E770470C2A002020B9034B01225A704C
:10843000FFF7DABF704700BF0C2A002038B50B4C9D
:10844000237883B90A486360A3602361E36000F086
:10845000C9F8054602F0B4FD08B900F0CFF80123D1
:108460002370284638BD8525FBE700BF0C2A002075
:108470000D84020037B50B4C00230DF107008DF879
:108480000730FFF70DF8E368013BE360E56815B9D5
:1084900000F0C6F8A5709DF80700FFF725F803B0B7
:1084A00030BD00BF0C2A0020012813B508D00328D6
:1084B0001CD018B9104B0122C3F8802002B010BDA7
:1084C0000E4C00230DF107008DF80730FEF7E8FF92
:1084D00023780BB9FFF7B2FFE3689DF8070001337B
:1084E000E3600123A370FEF7FFFFE7E700F086F8E3
:1084F000FFF7C0FFE2E700BF00E100E00C2A002028
:108500001FB503788DF800304368019383688DF8B8
:108510000830C368054A0393054B684653F8213079
:1085200052F82110984705B05DF804FB202A00207E
:10853000242A00201FB503788DF80030436801938A
:1085400083688DF80830C368054A0393054B684675
:1085500053F8213052F82110984705B05DF804FB1C
:10856000202A0020242A0020F0B5194B90F800C0E2
:1085700091F81DE043F82C20164B16460A6943F883
:108580002C20154B03F80CE00C4607460FCC89B0A5
:108590006D460FC594E80F0085E80F00CDF810C0B8
:1085A000BEF1000F09D0002E0C4A694608BF3246C2
:1085B000381D00F09BFD09B0F0BD002E084A694649
:1085C00008BF324607F10C0000F088FBF3E700BF5C
:1085D000242A0020202A0020282A002001850200C9
:1085E00035850200044A137923B901211060918076
:1085F00018467047852070472C2A0020074B1A68C0
:10860000D2075FBFC02283F8002301221A604FF017
:1086100080430122C3F81825704700BF00E100E045
:10862000044B01221A604FF08042D2F81834DB0369
:10863000FBD470470C000040154B07B51A687AB19F
:1086400000221A601B680093009B4FF080430122B8
:10865000C3F808230F4B587910B95A711B68984713
:108660000D4B1A6882B100221A601B680193019BAE
:108670004FF080430222C3F80823064B1B680120F9
:1086800003B05DF804EB184703B05DF804FB00BFCE
:10869000000100402C2A00200401004000F180402D
:1086A00000F5C040002382B0036003680193019B82
:1086B00002B07047800000F1A040D0F8002722F4FB
:1086C0004032C0F80027D0F8003743EA0141C0F833
:1086D00000177047054B4FF0FF32072843F8202062
:1086E00084BFC01880F84820704700BF342A00209B
:1086F00010B5174C94F8583043BB04F130032021D7
:10870000FF22013911F0FF0103F8012BF9D1C8B2A2
:10871000FFF7E0FF01310C29F9D1042200210D48B7
:1087200002F03CFE0C4BC02283F8062340221A6064
:108730004FF4BE70FFF7B2FF084B4FF00042C3F892
:108740000423012384F85830002010BD0820FCE7E2
:10875000342A0020882A002000E100E00060004068
:10876000034B93F85800003818BF0120704700BF32
:10877000342A0020F0B5364D2C1894F93040002CE6
:1087800064DA8C78C4F34004002C0BBF0823002368
:108790000C260826B34201D10420F0BD55F8237001
:1087A00001373FD12E1845F8232086F8303014B910
:1087B000EA1882F848008A78540713D4D60733D5CC
:1087C000820002F1A042D2F8004724F00204C2F86D
:1087D0000047204EC20800F007070124BC40B75CE8
:1087E0003C43B4548A780C7812F0020225D09B00E6
:1087F00003F1804303F5C0430202D3F8101521F4BE
:10880000473121F44071C3F810152404D3F8101532
:1088100002F4F85204F4403422430A43C3F810250A
:108820000020BAE70133B5E74C7800F5E0724FF06D
:10883000A046A40046F82240CBE7083B2B4493F81F
:10884000501041EA841483F85040E9E70820A4E777
:10885000342A0020882A002038B51F4C251895F9A5
:108860003020072A16DD224492F848309B09032B5A
:108870000BD14FF0A043D3F81015C14001F0010116
:108880000231BDE83840FFF715BF012B0CBF0221B4
:108890000321F6E7D3B2072B1CD8930003F18043E2
:1088A00003F5C043D3F8100540F00100C3F81005EC
:1088B00002F14000800080B2FFF7F0FE51B195F95F
:1088C000303054F823302BB1012303FA02F2034B6A
:1088D000C3F8042338BD00BF342A002000600040E4
:1088E0000E4B034493F93020072A02DD0021FFF7E5
:1088F000E1BED3B2072B10D8930003F1804303F5F8
:10890000C043D3F8101521F00101C3F8101501235D
:1089100003FA02F2024BC3F808237047342A0020FE
:10892000006000404FF0A043D3F8103523FA00F068
:1089300000F00100704700002DE9F04F87B00024DF
:108940005A4D03944FF48072012102F1804303F5E4
:10895000C04390B21B68012B06D1D5F804330B42FB
:1089600002D0FFF79BFE0C430432B2F5907F4FEA32
:108970004101EAD14E4B1B68012B0AD14FF4BE7066
:10898000FFF78CFE4FF0A04344F00044D3F81035BD
:10899000039314F0FF0F1AD0464F002501263442EE
:1089A00010D0AB0003F1804303F5C043D3F81005AA
:1089B000D3F8101557F8253023B1C1F30141C0F3A6
:1089C000042098470135082D4FEA4606E7D1002CD0
:1089D00065DA00214FF0FF33CDE90413354D01274F
:1089E0004FF0000A344ED1464FF0A04816F9013B33
:1089F0005A1C45D0C3F3C20106AA5018DCB210F8C5
:108A0000042C03F03F0B03F0070307FA03F31A42A9
:108A100036D005EB0B02A40992F9302055F822203C
:108A200052B9032C2CD10DF1100E1EF801C04CEAE6
:108A3000030C0EF801C001E0032CF4D00BF5E0713B
:108A400010F80C0C58F821101842C1F3014105D060
:108A5000022915D1032C0FD1214604E003290FD19F
:108A6000032C09D102215846019209F10109FFF7AF
:108A700021FE019A5FFA89F912B1214658469047C2
:108A80000AF1010ABAF1040FB0D1B9F1000F06D012
:108A90004FF0A043039AD3F81035934202D107B0A8
:108AA000BDE8F08F0393049B059399E700600040B5
:108AB0007C610040342A0020842A0020014B1B687E
:108AC000184700BF902A00200E4B984237B50C463D
:108AD00002D0002003B030BD00230DF107008DF857
:108AE0000730FEF7DDFC084B1D7915B901221C602B
:108AF0001A719DF80700FEF7F7FC002DE9D0112050
:108B0000E8E700BF00200040902A0020034B984275
:108B100001BF034B00221A601A7170470020004009
:108B2000902A00200023435082B043580193019BB8
:108B300002B070470A4610B54FF48E71FFF7F2FF8E
:108B4000136A9168C95C136A01331362C0F81C157B
:108B500010BD8B690A4610B54FF4847123B9FFF735
:108B6000E1FFD0F8183510BDFFF7DCFF536AD1687C
:108B7000D0F81805C854536A01335362F3E7000074
:108B80001FB501238DF80030044BCDE90110D3E966
:108B900000126846904705B05DF804FB982A002053
:108BA00030B54C48D0F8043313F4007F85B0054647
:108BB0004DD0D0F82431002B49D04FF49271FFF7FB
:108BC000B1FF4FF40173C0F80833434B93F82920E9
:108BD0000AB9012242603F4902228DF80020D1F8F3
:108BE0008024C1F8802403929A690292DA68019283
:108BF0000022C3E906226846D3E9001290473548AF
:108C0000D0F81C315BB134494A690B6A9A420A4672
:108C10004AD991F82830002B46D1FFF78BFF2D4819
:108C2000D0F844318BB14FF4A271FFF77BFF2A4B90
:108C300093F829200AB1012202609A692AB1002220
:108C4000586AD9689A61FFF79BFF05B030BDD5F827
:108C500004335B07D3D5D5F80831002BCFD01E4C99
:108C60001C482146FFF775FF636AA2699A422346B2
:108C7000C5D1E269E1684AB12369E3600023606A13
:108C8000A261E3616362FFF77BFFB8E794F82920F4
:108C90000AB901226A600F4A4FF40170C2F8080352
:108CA0000022586A9A61EEE70A484FF48E71FFF786
:108CB00039FF5369002BB2D05169029100239168AA
:108CC0008DF80030019153616846D2E9001398474E
:108CD000A5E700BF00200040982A00202DE9F843B6
:108CE000574B057991462C2202FB0532064692F835
:108CF0002A200C469846002A40F09D805149006881
:108D0000FFF7E2FE0746002840F0978021683368AD
:108D1000481C0BD04FF0A04001228A40C0F8082523
:108D200001F5E0724FF0030C40F822C06068421C6D
:108D30001FBF00F5E0724FF0A04C4FF0000E4CF852
:108D400022E0A269C3F8242594F814C0627DBCF126
:108D5000010F4CEA0202C3F86C25C3F81405C3F8EE
:108D60000C151DD1A1684A1C1FBF01F5E0724FF020
:108D7000A0404FF0000C40F822C0E268501C0BD01D
:108D80004FF0A04C01209040CCF8080502F5E070AF
:108D90004FF0030E4CF820E0C3F80825C3F8101577
:108DA0002C236B4308EB0302C2F80490226948F8B5
:108DB0000320B9F1000F2BD03068247F4FF48E715F
:108DC000FFF7B0FE30684FF4A271FFF7ABFE3268D8
:108DD0001D4BC2F80433110B42F30732002AA8BF1F
:108DE00002F160404FEA4413BABF184801F00F0483
:108DF00000F56140DBB2B4BF035580F8003301F0E9
:108E00001F01012303FA01F15209114B43F822100B
:108E100033680422C3F800252C2303FB05830022BA
:108E2000C3E9062283F829205A61012283F82A2007
:108E30003846BDE8F8830827FAE71127F8E700BFAE
:108E4000982A0020A18B02008000020014ED00E0AF
:108E500000E100E0F8B5047900682C4D0023C0F86B
:108E600000352C2303FB04535B686BB1284BC0F81F
:108E7000083340F30733C0F304315B0901228A4011
:108E80002033244941F82320D0F80C65D0F814157C
:108E9000D0F80835D0F810254FF0FF37BE42C0F8A3
:108EA000147518BF06F5E076C0F80C75C0F80875A3
:108EB000C0F810751EBF4FF0A0474FF0020C47F8E6
:108EC00026C04E1C1FBF4FF0A04601F5E0710227DF
:108ED00046F82170511C1FBF4FF0A04102F5E0720F
:108EE000022641F822605A1C1FBF03F5E0734FF0C1
:108EF000A042022142F82310FFF708FE2C2303FBB7
:108F00000454002384F82A306360F8BD982A0020B6
:108F10008402020000E100E02DE9F047204F90F8C4
:108F200004904FF02C0808FB097405466669002E72
:108F300034D162610068A16026624FF48E7184F8BA
:108F40002860FFF7EFFD2868012383602146FFF7C3
:108F5000F1FD6368A0468BB92868D4F814A0236A91
:108F60009A4511D82A68D2F81C31002BFBD0012376
:108F7000D3602C2303FB097300225A613046BDE8FD
:108F8000F08794F828303BB9D0F81C31002BF8D08A
:108F90004146FFF7CFFDE2E70F26EAE71126EDE7AE
:108FA000982A00200023435082B043580193019B2C
:108FB00002B070471FB501238DF80030044BCDE996
:108FC0000110D3E900126846904705B05DF804FB34
:108FD000C42A00207FB5434AD2F82461002E60D015
:108FE00010464FF49271FFF7DDFF02238DF8003039
:108FF000D2F88034C2F880340393D2F83C3502931F
:10900000394BDA6801920022C3E906226846D3E9A7
:10901000001290473348D0F8443173B14FF4A27135
:10902000FFF7C0FF304B9A693AB10022C3E906222C
:10903000D968D0F83C05FFF7BDFF2A48D0F82031A9
:10904000ABB14FF49071FFF7ADFF0123C360264B26
:109050005A6962B1D0F84C150291002299688DF8D6
:10906000002001915A616846D3E9001290471D48DB
:10907000D0F858319BB14FF4AC71FFF793FF1A4B06
:109080005A6962B1D0F84C150291002299688DF8A6
:10909000002001915A616846D3E90012904704B05C
:1090A00070BDD2F81031002BB4D04FF48871104647
:1090B000FFF778FF0C4BD2F83C0599698842A9D19B
:1090C000DC69D96864B1D2F8005225F02005C2F8F5
:1090D00000521A699C61DA60DE61FFF76BFF99E765
:1090E0009C61FAE700200040C42A00202DE9F843E3
:1090F0005D4B06799146242202FB0632044692F823
:1091000020200D469846002A40F0AA805749006862
:10911000FFF7DAFC0746002840F0A480296823689E
:10912000481C0BD04FF0A04001228A40C0F808250F
:1091300001F5E0724FF0030C40F822C06868421C51
:109140001FBF00F5E0724FF0A04C4FF0000E4CF83E
:1091500022E0AA69C3F8242595F814C06A7DBCF101
:10916000010F4CEA0202C3F86C25C3F80C15C3F8D2
:1091700014051DD1A9684A1C1FBF01F5E0724FF00C
:10918000A0404FF0000C40F822C0EA68501C0BD001
:109190004FF0A04C01209040CCF8080502F5E0709B
:1091A0004FF0030E4CF820E0C3F80825C3F8101563
:1091B0002423734308EB0302C2F804902A6948F899
:1091C0000320B9F1000F3AD020682A7F4FF488714C
:1091D000FFF7E8FE20684FF49071FFF7E3FE206888
:1091E0004FF49271FFF7DEFE20684FF4A271FFF793
:1091F000D9FE20684FF4AC71FFF7D4FE23681C49F8
:10920000C3F80413190B43F30733002BAEBF03F16C
:10921000604001F00F0517484FEA4212A8BF00F561
:109220006140D2B2B4BF425580F8002301F01F0163
:10923000012202FA01F15B090F4A42F82310236868
:109240000822C3F80025242303FB06830022C3E978
:1092500006225A61012283F820203846BDE8F883AF
:109260000827FAE71127F8E7C42A0020D58F020063
:109270001003420014ED00E000E100E0F8B5374DC6
:109280000479242303FB045302465B6800686BB136
:10929000334BC0F8083340F30733C0F304365B099F
:1092A0000121B14020332F4E46F82310D0F8003270
:1092B000012623F02003C0F800324FF4AC71466061
:1092C000FFF770FE1068C660D0F85831002BFBD055
:1092D0000023C0F80035D0F80C65D0F81415D0F88C
:1092E0000835D0F810254FF0FF37BE42C0F80C7596
:1092F00018BF06F5E076C0F81475C0F80875C0F818
:1093000010751EBF4FF0A0474FF0020C47F826C063
:109310004E1C1FBF4FF0A04601F5E071022746F832
:109320002170511C1FBF4FF0A04102F5E0720226D0
:1093300041F822605A1C1FBF03F5E0734FF0A042B2
:10934000022142F82310FFF7E1FB242303FB04541E
:10935000002384F820306360F8BD00BFC42A0020D9
:109360001003420000E100E001F06043B3F1005F50
:109370002DE9F041064638D11E4B0779242505FB1F
:10938000073598466C69002C31D16A610068A96084
:109390004FF49071FFF706FE4FF4AC713068FFF7A1
:1093A00001FE33686A69A968C3F84415C3F8482503
:1093B00001229A606A68AAB9D3F82021D3F85841EB
:1093C0001AB9002CF8D00F2407E0002CFBD10122A1
:1093D000DA60D3F85821002AFBD0242303FB078747
:1093E00000237B612046BDE8F0811024FAE71124B8
:1093F000F8E700BFC42A00202DE9F74F4FF0000B1B
:10940000DFF8A0A0DFF8A08006460425D9465FFA61
:109410008BF701240DF10700BC408DF80790FEF793
:109420003FF814EA0A0F09D0D8F8003014EA030212
:1094300001BF2343C8F80030377015469DF8070078
:10944000FEF752F8EDB91248124B1349C01AC00882
:1094500000043A4640F00300FDF722FB2846FEF7E1
:109460000BFE0B4C0D4A0E4903460A48241AE40829
:10947000240444F00300FDF71CFB284603B0BDE8BC
:10948000F08F3AEA040A0BF1010BC0D1E6E700BF06
:10949000D8B40200C8B4020062BC0200DABC020008
:1094A00079BC0200FFFF0100E82A002037B589B32C
:1094B00082B3194D194C0123641B8340E408240432
:1094C000C3F3100544F0030405B3154D2D682B427A
:1094D0001ED0C50005F1804505F5F8350B46C5F8E9
:1094E0001015C5F814250F49009202462046FDF7D5
:1094F000EAFA00252846FEF7BFFD0B4A0B49034652
:109500002046FDF7D6FA284603B030BD0725F1E71F
:109510000825EFE70E25F6E7C8B40200D8B402002C
:10952000E82A002097BC0200F1BC020079BC0200CE
:1095300038B5012303FA00F0440C6404C4B918B12F
:109540000D4B1B68184215D00C4BC3F80405204680
:10955000FEF792FD0A4D0B4A0B4903460B482D1AA4
:10956000ED082D0445F00300FDF7A3FA204638BDB1
:109570000724ECE70824EAE7E82A002000F001408D
:10958000D8B4020009BD020079BC0200C8B40200D0
:1095900000F1804000F5E040002382B003600368E2
:1095A0000193019B02B07047F0B5504B504C1B68C3
:1095B00085B0002B3DD04FF4827094F82E20FFF739
:1095C000E7FF2AB394F82F3013BB4A4B1B68002BDC
:1095D00033D04FF48070FFF7DBFF638B94F82D10CE
:1095E0008B424FD922895B1A9BB292B26383D31A02
:1095F000626802EB4303404AC2F82C36C2F83016C8
:109600004FF48270FFF7C4FF3C4B01221A6014E054
:10961000636802932389ADF80C30E36800218DF86C
:10962000041023BB2374236801A89847002384F8FF
:109630002F3094F82E30002BC7D1314B1B685BB113
:109640004FF48870FFF7A4FF0023237402238DF8E2
:10965000043001A8236898472A4B1B68EBB14FF4EC
:109660008A70FFF795FF0023237405B0F0BD208BAF
:10967000608363602081E160002AD4D11E4B012207
:109680001A60D0E7BCD1E368012284F82F2013B11F
:1096900000226283AFE76383B2E766694FF0004759
:1096A0000125002EE1D0B6FA86F227FA02F34632FF
:1096B000920026EA030602F1804303F5E0431B68AB
:1096C000002BEED01046FFF763FFA2F58C72D30893
:1096D00082F00402C2F380028DF808308DF8045045
:1096E00023688DF8092001A89847DAE70471004043
:1096F000EC2A00200071004000700040047000401F
:10970000107100401471004038B51E4B044693F8A8
:109710002C00A8BB1C4A19602178C2F8F0156178AA
:10972000C2F8F415E5781874012183F82C1083F839
:109730002D00586183F82F0083F82E506FF00043FE
:10974000C2F808334FF48270FFF722FF4FF48070A5
:10975000FFF71EFF4FF48A70FFF71AFFA3780B483C
:109760005B01DBB280F80733802303600223C2F879
:1097700004330DB1C2F80413C2F80015002038BD3F
:109780000820FCE7EC2A00200070004000E100E027
:1097900070B52A4B1A7C02F0FF05002A4BD10A79DA
:1097A000012A9CBF264CC4F8005500F10C0503EBC0
:1097B0004504247924B993F82D40013483F82D40D1
:1097C00003EB4503CC790D7A8E781C715D714B7873
:1097D00036021B0106F4E06603F0300333430E78D3
:1097E00006F003063343CE78360306F4805633433F
:1097F000160406F4E02633434E798979360506F4DB
:1098000080160906334301F080710B430C4901EBCC
:109810000016000100F1804000F5E040012AC6F882
:109820001835C0F81455C0F8104502D80123C1F806
:109830000035002000E0112070BD00BFEC2A0020A0
:1098400000700040054B93F82E30002B14BF002011
:10985000042000F1804000F5E0407047EC2A002031
:1098600070B5264A264B05461220C2F808031C7C18
:10987000022C03D1C2F80403112070BD187C01280A
:109880001DD1D86818B10223C2F80433F4E7DD60B3
:10989000198393F82E3063B91A4A1368002BFCD051
:1098A0004FF48070FFF774FE144BC3F82C56C3F8C6
:1098B0003016124B0222C3F804230020DDE70220F9
:1098C00093F82E40C2F80403012600201E745D6048
:1098D0001981D8603CB1598393F82D30C2F82C56C9
:1098E000C2F83036C9E7C2F82C564FF48070C2F87F
:1098F0003016FFF74DFE20461660BEE700700040B0
:10990000EC2A002000710040F7B506792F4D0C239A
:109910007343EF183C7A002C56D1EA504B687B60B9
:10992000477903682246D0B2874244D843F30734CC
:10993000C878002CA8BF04F16047C3F30732BABF50
:10994000234F02F00F0C07F561474FEA4010C0B2F9
:10995000B4BF07F80C0087F80003640901201D4F0D
:1099600002F01F0200FA02F247F82420D3F804455F
:109970004A7824F0030402F003022243C3F80425CA
:10998000D3F808458A7824F0030402F00302224346
:10999000C3F808250A78D3F8104502F00F0224F026
:1099A0000F010A43C3F810250C2303FB0655287248
:1099B000002003B0F0BD900000F5A07001321C50F3
:1099C000185801900198AEE70820F2E71C2B002000
:1099D00014ED00E000E100E0036801221A60037961
:1099E000034A0C2101FB032302221A72704700BFB5
:1099F0001C2B002037B54FF4803400688C407BB1BD
:109A00008B0003F5A0730025C550C3580193019B3B
:109A1000C0F8044301F5A87140F8212003B030BD1F
:109A2000C0F80843F6E770B4046840F20116D4F8B1
:109A300000528E4025EA0605C4F80052D4F80052C0
:109A40002B43C4F800329DF80C3070BCFFF7D2BF36
:109A50002DE9F341104C114F114E00254FF4803881
:109A6000236883B1D7F8043308FA05F21A420AD002
:109A7000002323602368019304F5E040019B80B23A
:109A8000D6E9003198470135042D04F10404E7D1EB
:109A900002B0BDE8F08100BF40910040009000405E
:109AA0001C2B0020034B187810B901221A70704744
:109AB00085207047282B002072DF704773DF7047C6
:109AC00076DF70477ADF70477CDF70477FDF704753
:109AD0008FDF7047B1DF70477047FDF7F1BA0000C4
:109AE00008B5064B01211878FFF7E8FF08B1FDF72C
:109AF000E7FABDE808400020FEF730BC3023002024
:109B00000388212B13B5044654D007D8112B30D02D
:109B1000132B47D0102B0CD002B010BD522B51D0BC
:109B2000562B01D03B2BF7D1A0881321FFF7C8FF9C
:109B30001AE0284B28482949C01AC008000440F000
:109B40000300FCF7A9FF0120FEF708FC0020FEF748
:109B500011FC234BA1882348198001F0A5F808B116
:109B6000FDF7AEFAFDF76AFA0028D5D0FDF7A8FA9E
:109B7000D2E7184B18481C49C01AC008000440F02E
:109B80000300FCF789FF0120FEF7F4FB144B4FF6AE
:109B9000FF721A80FDF768FA08B1FDF791FAFFF736
:109BA0009FFFB9E70E4800231A4685210088FFF77A
:109BB0008DFFD9E7002301A98088ADF80430FFF7B5
:109BC00087FFD1E7064800231A4619460088FFF7A9
:109BD00081FFC9E7C8B4020008B502002DBD02002C
:109BE00032230020B42B002037BD020008B50378D3
:109BF0004BB9054B3B211888FFF762FF18B1BDE850
:109C00000840FDF75DBA08BD322300202DE9F04180
:109C10000378064613BB40680521FFF721FE08B113
:109C2000FDF74EFA0E480F4C0F4D10492A68DFF829
:109C30004080241AE408240444F003042046FCF77E
:109C40002FFF002773684146DA5F20460237FCF792
:109C500027FF0A2FF6D12B6801332B60BDE8F08176
:109C6000C8B4020008B502002C2B002044BD02003D
:109C700056BD02000D2807B51BD1124B12480191A9
:109C8000C01AC0080004114940F00300FCF704FFAB
:109C90000F4B019A0F49188801F0EAF830F00802DA
:109CA0000CD043F20202904208D043F201429042AB
:109CB00004D003B05DF804EBFDF702BA03B05DF821
:109CC00004FB00BFC8B4020008B5020059BD020081
:109CD00032230020982B002010B50A4B0A4CE41ABE
:109CE000E408240444F0030402203AB1FEF736FBF2
:109CF00006492046BDE81040FCF7CEBEFEF73AFB11
:109D00000349F6E7C8B4020008B5020073BD0200BB
:109D100084BD0200FDF7D4B91FB5FFF7C3FE08B13B
:109D2000FDF7CEF9174A18480023CDE9022302A90E
:109D3000164AFFF7E9FD08B1FDF7C2F9144B1548C3
:109D4000D3F810250021D2B220FA02F200910123AB
:109D50000D48FFF768FE0C48FFF73EFEFFF772FD67
:109D600004460D48FFF748FB08B1FDF7A9F90A4B77
:109D70000A4918782246FFF799FB08B1FDF7A0F9C8
:109D800004B010BD00000306C8BD0200D99A02004D
:109D90000090004000A86100B02B002040910040DE
:109DA00008B5054B1878FFF7C3FB18B1BDE80840AC
:109DB000FDF786B908BD00BFB02B00201FB5134AC0
:109DC00010685168127A01AB03C3114911481A7027
:109DD000FFF79AFC08B1FDF773F901A90020FFF71E
:109DE000D7FC08B1FDF76CF90B480521FFF738FDEA
:109DF00008B1FDF765F909480521FFF731FD08B104
:109E0000FDF75EF905B05DF804FB00BFB9BD0200C7
:109E10000D9C0200C2BD0200302B00203A2B002016
:109E200010B54FF48041A6B00020FCF77FFC08B1CC
:109E3000FDF746F9FCF7B0FBFEF77EF808B1FDF739
:109E40003FF90120FEF7B1FAFDF7FCF908B1FDF783
:109E500037F96E4840F233320121FDF799F808B125
:109E6000FDF72EF9FEF768F808B1FDF729F901F0C2
:109E700069F808B1FDF724F9002317A90120179309
:109E800001F0E8F808B1FDF71BF917A801F094F903
:109E900008B1FDF715F911235D488DF8203001F068
:109EA000B0FA5B4982B208A8FFF70EFE08B1FDF7D1
:109EB00007F90822002117A801F070FA554A4FF05F
:109EC000C87317A8CDE91723FFF7FCFD08B1FDF70C
:109ED000F7F85148002100F0DFFD08B1FDF7F0F878
:109EE000002308934D484E4B179317A900F0CAFE64
:109EF00008B1FDF7E5F84B4B4B48089308A900F073
:109F000049FF08B1FDF7DCF841F22353ADF8043006
:109F1000454B464C9B7C8DF806303C22002108A81E
:109F200001F03CFA02238DF820303C2240F201631C
:109F3000002117A8ADF8223001F030FA22460123A3
:109F4000ADF86C3052F8041B01AB08A81C9300F06C
:109F5000F7F808B1FDF7B4F8354AA16817A800F082
:109F6000EFF808B1FDF7ACF81822002102A801F0C3
:109F700015FA00230122ADF8143003934FF48073D7
:109F80008DF80820ADF81C3028492A48402302AA41
:109F90000493FFF791FD08B1FDF792F81C22002110
:109FA00017A801F0FBF900234FF4A022CDE91732E6
:109FB000ADF86A304FF4A0328DF86C301E4B199218
:109FC0001C9303221D4B8DF8682017A81D9300F0E9
:109FD0007FFB08B1FDF774F8FFF7F0FEFFF79CFE7A
:109FE000FFF7DEFE164B17481749C01AC0080004D9
:109FF00040F00300FCF750FDFFF772FDFCF7F0FBAB
:10A000000028FBD1FDF7AEFFF8E700BF18230020C2
:10A0100096BD02005000A000842B0020B42B00202D
:10A02000DB9A0200D99C0200982B002020230020FC
:10A030002C23002030230020ED9B0200159D020000
:10A04000C8B4020008B50200A1BD02006DDF704770
:10A0500079DF70477DDF704764DF70472DE9F04F8F
:10A0600085B000250E9CBDF83CB0B4F800A001916D
:10A07000074690461E46A9463A884A450DDC45B13A
:10A080002388013BA3EB0A039BB2FF2B3AD806F8C7
:10A090000A30002005B0BDE8F08F7A6852F8290038
:10A0A000039000220DF10B0103A8FFF7D5FF002854
:10A0B000F0D19DF80B20424521D12288002D14BFFC
:10A0C0000020022002EB0801014459451ADC3DB989
:10A0D000013292B2019B2280B35422880132228045
:10A0E00022880DF10B01324403A8FFF7B5FF0028C9
:10A0F000D0D121889DF80B200A442280012509F146
:10A100000109B9E70C20C5E72DE9F341089FBDF827
:10A1100024801546CDE90078022204461E46FFF74A
:10A120009DFF50B93346102229462046CDE90878D4
:10A1300002B0BDE8F041FFF791BF02B0BDE8F08189
:10A140002DE9F04F00231788138090F82D3085B04B
:10A1500006460D46144653B3082F01D80C2027E1BC
:10A1600002A8FFF773FF002840F02281238808220D
:10A17000EA54238801339BB21B222380EA542088AF
:10A18000013080B2208006220DF10901284401F03F
:10A19000DCF823889DF8082006339BB212F0FE02FB
:10A1A00018BF01222380EA54238801332380B37827
:10A1B000FBB123880433BB42D0D802A8FFF748FF85
:10A1C000002840F0F58023880322EA5423880133D5
:10A1D0009BB219222380EA542388BDF8082001335A
:10A1E0009BB2E9182380EA54120A4A70238802338A
:10A1F0002380F2789AB12388D91CB942AED80221C3
:10A20000E954238801339BB201212380E954238838
:10A210000B449BB22380EA5423880B44238072684A
:10A22000AAB12388D91CB94298D8022192F90020FA
:10A23000E954238801339BB20A212380E9542388FF
:10A2400001339BB22380EA5423880133238033896E
:10A25000002B40F0A180338A5BB1CDE900472B464B
:10A260000722032106F11000FFF74EFF002840F0FF
:10A270009F80338B5BB1CDE900472B46152214211B
:10A2800006F11800FFF740FF002840F09180326A85
:10A29000002A40F09080D6F82480B8F1000F30D02A
:10A2A000B8F804302188981C8A1C0244BA423FF650
:10A2B00055AFFE283FF652AF03336B54238801336A
:10A2C0009BB2FF222380EA54238801339BB2238070
:10A2D000B8F80020EA54E918120A4A7020880230BF
:10A2E00080B22080B8F804205AB1D8F808100029AC
:10A2F0006BD0284401F029F82388B8F804201344CF
:10A30000238096F82C30002B40F09A80307800287B
:10A310004ED03388012B58D0228802F1020CBC4564
:10A320003FF61CAF012805D17378023313449F42D6
:10A33000FFF414AF023FBF1ABFB202A905EB0C0035
:10A34000ADF80870FFF786FE90BB3178BDF8083095
:10A35000022900F0BA8072789A4202D3BB4240F2DE
:10A36000B280012940F0B380974293B2C0F0AF8031
:10A37000ADF808300821BDF80830FE2B3FF6EEAEF0
:10A3800022880133AB542288013292B22280A95430
:10A390002288134423800BE0CDE900472B46062298
:10A3A000022106F10800FFF7AFFE00283FF453AF8B
:10A3B00005B0BDE8F08FB4F800C00CF10603BB4255
:10A3C0003FF6CCAE1188052901D80720F0E76FF4DD
:10A3D000486E01EB0E039BB24FF27D3E7345F4D9FC
:10A3E0005388052BF1D96FF44860181880B2704576
:10A3F000EBD94FF6FF70814203D0834201D09942DE
:10A40000E3D8052305F80C30238801339BB21221D1
:10A410002380E954238801339BB223801188E954B7
:10A42000E818090A4170238802339BB223805288BE
:10A43000EA54E918120A4A702388023323802AE773
:10A44000B36A002BC1D04FF000094FF00C0A4FF057
:10A45000160B96F82C305FFA89F293427FF656AFCE
:10A46000B16A0AFB02F201EB0208B8F80430981C4A
:10A47000FE283FF673AE208803332B542388013324
:10A480009BB2238005F803B0238801339BB223805D
:10A490008A5AEA54E918120A4A702088023080B2B7
:10A4A0002080B8F804205AB1D8F8081000298CD0C0
:10A4B000284400F04AFF2388B8F80420134423807E
:10A4C00009F10109C5E7092155E7BB42FBD9ADF800
:10A4D00008704FE775DF704776DF70477ADF7047A7
:10A4E0007BDF7047034B1A8882420CBF184600205E
:10A4F000704700BFDC2B0020024B9B6903B118475B
:10A50000704700BFC02B002073B585B22846FFF707
:10A51000E9FF044670B1164E027A337B9A420BD2A1
:10A5200000F10A012846FFF7D5FFE8B1112801D054
:10A53000FFF7E2FF02B070BD00230372337C43B12A
:10A540003B212846FFF7C8FF30F0080301D0FFF792
:10A55000D3FF7369002BEDD000228DF80420ADF8F5
:10A56000065001A89847E5E7237A01332372E1E713
:10A57000C02B002037B50B46497A0F4A71B9D2E992
:10A5800001141D7A0246002D18BF21465868FCF7B9
:10A5900096FE08B1FFF7B0FF03B030BD002119727D
:10A5A0005369002BF8D00122ADF806008DF8042085
:10A5B00001A89847F0E700BFC02B00204B88028815
:10A5C0009A4213D842889A4210D380888A8840F2EF
:10A5D000F313984294BF031AC31A934206D800F2A9
:10A5E000F310904234BF00200120704700207047D4
:10A5F0000388122B70B5014659D004D8102B1ED0F9
:10A60000112B44D070BD502BFCD12F4BC288DB895D
:10A610009A42F7D1038A022BF4D186883046FFF79D
:10A6200061FF05460028EDD001F1120000F03FF96E
:10A6300038BB6868FCF75BFE0028E3D009E0C37B09
:10A64000012BDFD14FF6FF70FFF74CFF054620B915
:10A650000420BDE87040FFF74FBF1C4A8E8806807B
:10A66000002303721368C0F80A305368C0F80E3034
:10A6700010310A30FFF7A2FF134B6872DB89002B01
:10A68000C0D129463046BDE87040FFF773BF8088CF
:10A69000FFF728FF04460028B4D04068FCF727FEE7
:10A6A00008B1FFF729FF4FF6FF732380AAE78688DA
:10A6B0003046FFF717FF05460028A3D008310A30BF
:10A6C000FFF77CFF6872DCE7C02B0020F02B002036
:10A6D000F8B5064648B305460FCD154F3C460FC4A6
:10A6E00095E8070084E807003068124C3C60B0B180
:10A6F000FFF7F4FEC0B932681368236053686360E3
:10A700000D480E4A4FF6FF7303800D4B40F8043F8F
:10A710000021FCF7C9FD002818BF032004E02046F3
:10A72000FFF7DEFE0028EBD0F8BD0E20FCE700BFEF
:10A73000C02B0020F02B0020DC2B002009A50200FC
:10A74000F82B00200AB1FDF7ADB8FDF7B4B873B52A
:10A750000191019C06466CB100252C46294601A8B2
:10A76000FDF7B3F818B106EB440301349D800135C1
:10A77000142DF3D13046346002B070BD2DE9F0479E
:10A7800003888488103B8CB005460A2B1FD8DFE86D
:10A7900003F0063F1E1E1E1E1E1E1E604400314E8C
:10A7A000B368DB43009371686846FDF7BAF8009917
:10A7B00001A8FFF7CCFF0DF108094FF00008019B3D
:10A7C000984507D3132C13D90420FCF779FC0CB05F
:10A7D000BDE8F08739F802AB00270137514606EB98
:10A7E0008700FDF768F81E2FF7D108F10108E6E7AA
:10A7F0001D482146FDF756F81C482146FDF752F842
:10A80000EB7B012BE3D01A482146FDF74BF8DEE73E
:10A8100015482146FDF74FF8D9E7027A15483F2A37
:10A820004FEA1215214694BF00220122FFF78AFF4A
:10A83000022D94BF002201220F482146FFF782FF1C
:10A84000012D0E4894BF002201222146FFF77AFF16
:10A85000BDE7037A002BBAD1427A0648C2F3C002A0
:10A860002146F3E7182C0020202C00201C2C00206F
:10A87000242C0020302C00202C2C0020282C002000
:10A88000AADF7047002301380B70042806D8DFE8E0
:10A8900000F00306080A0C0011230B7070472123F7
:10A8A000FBE73123F9E71223F7E72223F5E70078E6
:10A8B00000F001007047F0B58B7891B0012B0C4689
:10A8C00038BF01238DF80E3005460B88ADF80C30EB
:10A8D000002116466846032200F060FD607C694650
:10A8E000FFF7D0FFA07C0DF10101FFF7CBFFE27B6A
:10A8F000237B217D43EAC203227C43EA02139DF8B5
:10A900000220002922F0190203F0190314BF0221CA
:10A910000121134361F342031C22002109A88DF891
:10A92000023000F03BFD637B13F0300F15D002AF17
:10A9300003220021384600F031FDE07C0DF10901D1
:10A94000FFF7A0FF11238DF808309DF80A300E970D
:10A95000012262F342038DF80A30637B8DF82430C4
:10A960001422A37B8DF82530002104A800F016FDE9
:10A9700003AB0493A388ADF81C30A368CDF814D0C2
:10A980001BB1E288ADF818200893A369002B31D0E1
:10A9900001AF03220021384600F000FDA3691A88A8
:10A9A000ADF82C205A88ADF82E205A680D97187BE8
:10A9B0000A923946FFF766FFA3690DF10501587B3E
:10A9C000FFF760FFA269917A137A43EAC103D17A53
:10A9D000927B43EA01139DF80610002A03F0190345
:10A9E00021F0190114BF022201220B4362F342033A
:10A9F0008DF80630E36903B10C93334604AA09A924
:10AA00002846FFF73DFF11B0F0BD90DF7047A5DF8E
:10AA10007047B5DF704700007FB50023ADF8081020
:10AA2000ADF80A106A4602A9064603930093ADF8F2
:10AA30000430FFF7EAFF054600B3124B124CE41A4C
:10AA4000E408FDF719FB240444F0010403460F4910
:10AA500032462046FCF72DF8BDF80020BDF8023044
:10AA600052EA030103D00A492046FCF722F8BDF858
:10AA700004201AB107492046FCF712F8284604B012
:10AA800070BD00BFC8B4020028B50200D0BD0200EE
:10AA90001ABE020059BE020078B14FF017130360CE
:10AAA0001B2303711723C380038141F61B3200234C
:10AAB000016143818281184670470E207047000073
:10AAC00013B5034680880C46B8B91A88242A00F0CA
:10AAD000958014D8112A71D0232A00F09D80102A65
:10AAE0003BD0A37A4BB1E1880020FFF790FF00280C
:10AAF00040F098804FF48073638102B010BD3A2A11
:10AB000064D0552AEDD1DB88C988A072172B38BFD5
:10AB100017238B4228BF0B462381FFF77AFF60B1D2
:10AB2000FDF7AAFA484B4949024649481B1ADB0877
:10AB30001B0443F00100FBF7B3FFE37A002BD0D1F5
:10AB40002369002BCDD040F6772200922289ADF800
:10AB50000420694620469847C3E7DB7B0A790A73DD
:10AB6000012B13D0022B14D0E18823898B4205D20C
:10AB70000020FFF74CFF70B90123E372217B637B58
:10AB80008B42AED20020FFF747FFAAE70B88E38095
:10AB9000EAE74B88FBE7112802D10123A372EDE716
:10ABA000FDF76AFA284B2B49024629481B1ADB0895
:10ABB0001B0443F00100FBF773FFDFE71723CB8093
:10ABC0000B8141F61B3348818B818AE75B89CA88F8
:10ABD000934228BF1346172B0A6938BF17230B81EE
:10ABE0004AB1C97A39B140F677210091ADF8043005
:10ABF0006946204690470023638172E71A7A0B6901
:10AC00004A73002B3FF46DAF4DF67A218DF80500A5
:10AC100000918DF804209CE7197A237B994228BF84
:10AC20001946B0E711283FF468AFFDF725FA064B47
:10AC30000849024606481B1ADB081B0443F00100C2
:10AC4000FBF72EFF59E700BF28B50200E0BE020067
:10AC5000C8B40200AFBE0200B0DF704766DF7047C5
:10AC600010B5002104464088FFF7F8FF034608B9F5
:10AC7000237210BD112801D10123F9E76368BDE8F3
:10AC80001040184760B159B10378DE2B0AD00B6829
:10AC90004360DE2303704FF6FF734380002070474C
:10ACA0000E2070470820704728B10378DE2B04D1AE
:10ACB0004180002070470E20704708207047F0B593
:10ACC000054685B00C46F1B1E8B10B78DE2B1AD100
:10ACD00082884B889A4204D10B7A13B10846FFF759
:10ACE000BFFF2B88112B32D0512B0ED0012B0AD154
:10ACF0002B7A012B07D1A9886288914203D1237254
:10AD00002046FFF7ADFF05B0F0BDAE886388B342C3
:10AD1000F9D1AF79022FF6D1AD7B2B1F022BF2D8E0
:10AD200000211022684600F039FB052D14BF4FF4B6
:10AD3000C0730023694630468DF80070ADF80430CA
:10AD4000FFF78AFF0028DED063689847DBE7638857
:10AD5000AA889A4204BF4FF6FF736380D3E7A8DF47
:10AD60007047AEDF704762DF70470288502A10B428
:10AD70000DD1C4884A88944209D1028A012A06D199
:10AD80004B6923B1827C5DF8044B808818475DF8DD
:10AD9000044B7047F0B50B6843618FB0334B02AA88
:10ADA000044603F11007164618685968154603C58E
:10ADB0000833BB422A46F7D104F112013046FFF7AF
:10ADC000D2FF00284FD1A37C8DF80630224641F2F5
:10ADD000235301A90120ADF80430FFF7C0FF00287C
:10ADE00041D10146202206A800F0D8FA41F22453AE
:10ADF000ADF81830A37C8DF81A309DF82530224626
:10AE000023F0120301254FF0011643F0120332F82C
:10AE10000A0B079606A98DF825308DF829508DF874
:10AE20002B50FFF748FDF0B90146202206A800F09C
:10AE3000B5FA41F22553ADF81830A37C8DF81A30DD
:10AE40009DF825300796224623F00A0343F00A03B3
:10AE500032F8020B8DF8253006A98DF829508DF8AF
:10AE60002A50FFF728FD0FB0F0BD00BF1CBF020045
:10AE700070B588B00D468DF80720102204460126D3
:10AE80000DEB02000021ADF80E6000F087FA6B892F
:10AE9000ADF810300DF10703079304A90DF10E036F
:10AEA00020468DF812600693FFF75BFF08B070BD77
:10AEB00010DF704713B5044609496846FDF781F86D
:10AEC000019808B902B010BDD0E900212046904792
:10AED00018B16846FDF77FF8F2E71120F2E700BFEE
:10AEE00038BF020013B5044607496846FDF769F804
:10AEF000019B0BB902B010BD2046D3E90021904759
:10AF00006846FDF768F8F3E750BF02000B4991F877
:10AF100016335A09EC231341DB0706D5084B9A6810
:10AF20003AB94FF480030B60704742F20200FCF71D
:10AF3000C7B81A6842F480021A60704700E100E066
:10AF4000E4290020F7B5194F3C7864BB184E012561
:10AF500020463570FFF7AEFF112821D02046FFF7BD
:10AF6000C1FF144B8DF80340186801900DF10300E8
:10AF7000FCF796FA104901A8FFF79AFF0446B0FAC9
:10AF800080F0400938709DF80300FCF7ADFA3CB939
:10AF90000A4B34701C70FFF7B9FF2846FFF7A2FF79
:10AFA000204603B0F0BD0824FAE700BF952C00202E
:10AFB000942C002034BF0200DD700200962C00208B
:10AFC000014B1878704700BF952C002007B5084941
:10AFD0006846FCF7F6FF019B13B903B05DF804FB6C
:10AFE000D3E9002090476846FCF7F5FFF3E700BF80
:10AFF00044BF0200FFF7EABF60DF704769DF7047B8
:10B0000061DF704730B5114B1B7891B0E3B1104D43
:10B0100034240DF1020103A8ADF80240FFF7F0FF60
:10B0200070B9294601A8FCF7CCFF029B002BF0D099
:10B0300003A8D3E90021904701A8FCF7CCFFF4E76F
:10B04000052801D0FCF73CF811B030BD972C00204A
:10B0500094C1020030B5054685B00C46002900F0C9
:10B0600099804D4B0B600C22002101A800F096F94D
:10B0700001238DF8063022688DF80450062301A9BB
:10B080002020ADF80830FFF7B9FF60B1FCF7F4FFFE
:10B09000424B4349024643481B1ADB081B0443F05A
:10B0A0000100FBF7FDFC0C22002101A800F076F95D
:10B0B00001238DF805302268002301A94020ADF856
:10B0C0000630FFF79BFF60B1FCF7D6FF334B3649E4
:10B0D000024634481B1ADB081B0443F00100FBF74F
:10B0E000DFFC0C22002101A800F058F90A23226895
:10B0F0008DF8043001A90120FFF780FF60B1FCF753
:10B10000BBFF264B2949024626481B1ADB081B04B5
:10B1100043F00100FBF7C4FC0C22002101A800F061
:10B120003DF94FF4B0632268019301A9A120FFF714
:10B1300065FF60B1FCF7A0FF184B1D490246194896
:10B140001B1ADB081B0443F00100FBF7A9FC0C22CF
:10B15000002101A800F022F99DF8043022686FF365
:10B16000000301A9A0208DF80430FFF747FF034634
:10B1700068B1FCF781FF094B0E49024609481B1ACA
:10B18000DB081B0443F00100FBF78AFC0023184690
:10B1900005B030BD0E23FAE7F022002038B50200DA
:10B1A0005CBF0200C8B40200A2BF0200EEBF0200F2
:10B1B0003AC002008BC0020073B505460668FFF76F
:10B1C0001BFF2B68B34204461DD91A481A4B1B4972
:10B1D0001B1ADB081B0443F002000190FBF75CFC28
:10B1E0002B68174901983246FBF763FC4FF08053F8
:10B1F0002A68D3F80C31134901989B0203F10053DC
:10B200009A1AFBF74DFC2CB90F4B01221A702046FD
:10B2100002B070BD2046FCF72FFF074B0B490246DA
:10B2200004481B1ADB081B0443F00100FBF738FC41
:10B23000EDE700BFC8B4020038B50200DEC002006E
:10B240000DC102003EC10200972C002068C102001F
:10B250004BDF70471FB50D4C01A8FFF7F9FF70B920
:10B26000214602A8FCF7ADFE039B002BF4D0019809
:10B27000D3E90021904702A8FCF7ADFEF4E70528CA
:10B2800001D0FBF71DFF04B010BD00BFACC1020030
:10B290007F2805D8034B185C034B5B5C1840704754
:10B2A00000207047C4C1020044C20200A0F1610343
:10B2B000192B98BF20387047A0F14103192B98BF74
:10B2C000203070477F2805D8034B185C034B5B5C2C
:10B2D0001840704700207047C4C1020044C20200F9
:10B2E000A0F16103192B98BF20387047A0F14103EA
:10B2F000192B98BF203070477F299ABF0170012019
:10B300006FF02E0070475AB10A787F2A0AD800B130
:10B310000260002119605960501A18BF012070475F
:10B32000002070476FF02E007047000008B5034BF7
:10B330005B689B681B68984708BD00BF34230020EA
:10B3400008B50921FFF7F2FF08BD844640EA010372
:10B3500013F0030F18D18446202A0BD32DE9F007F0
:10B36000B1E8F807A0E8F807A2F12002202AF7D2F6
:10B37000BDE8F007042A07D351F8043B40F8043B2A
:10B38000A2F10402042AF7D2002A05D011F8013BE9
:10B3900000F8013B013AF9D1604670478446002A23
:10B3A0002DD010F0030F04D000F8011B013A26D075
:10B3B000F7E7C9B241EA012141EA0141202A12D34B
:10B3C000A2F120022DE9F0030B460C460D460E4675
:10B3D0000F4688468946A0E8FA03203AFBD2BDE82A
:10B3E000F00320320BD0042A05D340F8041B043AA2
:10B3F00005D0042AF9D200F8011B013AFBD16046BE
:10B40000704700F1010110F0030F11D010F8012B6B
:10B41000002A23D010F0030F0AD010F8012B002AC5
:10B420001CD010F0030F03D010F8012B002A15D008
:10B430002DE970004FF001324FF0803350F8044B8B
:10B44000A4EB020525EA04051D4000D1F6E7A0F1B2
:10B45000040070BC10F8012B002AFBD1A0EB010006
:02B46000704733
:08B46400298402000000000031
:10B46C007DA7020000000000C1AA0200842B00206E
:10B47C00F1A5020000000000BFAC0200B42B0020BC
:10B48C006BAD0200982B0020019B02000000000015
:08B49C00A98402000000000079
:10B4A40005B002000000000055B2020000000000D8
:10B4B4008C230020542400205C24002094230020AA
:04B4C400180000006C
:10B4C80046BC0200000000004CBC02000000000066
:10B4D800D6BC02000000030353BC020000000000B9
:10B4E80021BD02000000000027BD0200000000008E
:10B4F80057BC0200000000005CBC02000000000015
:10B50800B6B50200000003038CB60200000000007C
:10B51800B5B602000000000040BC020000000000B8
:10B528000FBF0200000003032CBF0200000003034A
:10B5380085C1020000000303A0C10200000003034C
:10B5480026B70200000000003CB70200000000001F
:10B5580088B502000000000094B502000423002012
:10B56800FFFFFFFFFFFFFFFFFFFFFFFFFFFFFFFFE3
:10B5780000000000000000000000D60106010000E5
:10B588000165020065650200A164020075617274BC
:10B598005F6C6F675F6261636B656E6400426163D5
:10B5A8006B656E647320666C7573686564006170A2
:10B5B80070000000802800207F0000000029002083
:10B5C8001B5B306D002573001B5B313B33316D0015
:10B5D80025734C6F67732064726F707065642028E0
:10B5E80025642925730D0A003C25733E2025733AEE
:10B5F8002000202530327800202020007C002563A0
:10B60800001B5B313B33306D001B5B313B33326DCC
:10B61800001B5B313B33336D001B5B313B33346DB7
:10B62800001B5B313B33356D001B5B313B33366DA3
:10B63800001B5B313B33376D007761726E696E6753
:10B6480000696E666F00646562756700C8B50200C0
:10B6580009B60200D0B5020011B6020019B6020000
:10B6680021B6020029B6020031B6020039B602003E
:10B6780000000000A2B6020041B6020049B602006E
:10B688004EB602006170705F627574746F6E000070
:10B6980020290020466174616C206572726F720007
:10B6A80053797374656D2072657365740061707089
:10B6B8005F74696D657200000100060000000000FB
:10B6C8005C2900204D71020052544320696E737446
:10B6D800616E636520616C726561647920696E6969
:10B6E8007469616C697A65642E005254433A206922
:10B6F8006E697469616C697A65642E0000000000E7
:10B7080000000000000000000338FDD87047303109
:10B7180032333435363738394142434445467077F9
:10B72800725F6D676D7400006CB402006CB4020047
:10B7380004000000736F72746C697374004E524693
:10B748005F53554343455353004E52465F4552524B
:10B758004F525F5356435F48414E444C45525F4DEC
:10B76800495353494E47004E52465F4552524F5235
:10B778005F534F46544445564943455F4E4F545FC7
:10B78800454E41424C4544004E52465F4552524F49
:10B79800525F494E5445524E414C004E52465F4509
:10B7A80052524F525F4E4F5F4D454D004E52465FCD
:10B7B8004552524F525F4E4F545F464F554E4400CC
:10B7C8004E52465F4552524F525F4E4F545F53554B
:10B7D80050504F52544544004E52465F4552524FC6
:10B7E800525F494E56414C49445F504152414D00C9
:10B7F8004E52465F4552524F525F494E56414C4950
:10B80800445F5354415445004E52465F4552524F8F
:10B81800525F494E56414C49445F4C454E47544847
:10B82800004E52465F4552524F525F494E56414C68
:10B8380049445F464C414753004E52465F45525279
:10B848004F525F494E56414C49445F444154410070
:10B858004E52465F4552524F525F444154415F53E6
:10B86800495A45004E52465F4552524F525F54491D
:10B878004D454F5554004E52465F4552524F525F08
:10B888004E554C4C004E52465F4552524F525F4601
:10B898004F5242494444454E004E52465F4552522B
:10B8A8004F525F494E56414C49445F41444452000F
:10B8B8004E52465F4552524F525F42555359004EC1
:10B8C80052465F4552524F525F434F4E4E5F434F71
:10B8D800554E54004E52465F4552524F525F5245A4
:10B8E800534F5552434553004E52465F4552524FAF
:10B8F800525F4D4F44554C455F4E4F545F494E493A
:10B908005449414C495A4544004E52465F455252AB
:10B918004F525F4D555445585F494E49545F464113
:10B92800494C4544004E52465F4552524F525F4D76
:10B93800555445585F4C4F434B5F4641494C45442D
:10B94800004E52465F4552524F525F4D555445582E
:10B958005F554E4C4F434B5F4641494C4544004E62
:10B9680052465F4552524F525F4D555445585F43BA
:10B978004F4E445F494E49545F4641494C45440047
:10B988004E52465F4552524F525F4D4F44554C45BB
:10B998005F414C52454144595F494E495449414CD5
:10B9A800495A4544004E52465F4552524F525F53E2
:10B9B800544F524147455F46554C4C004E52465FE6
:10B9C8004552524F525F4150495F4E4F545F494D67
:10B9D800504C454D454E544544004E52465F4552E5
:10B9E800524F525F464541545552455F4E4F545F42
:10B9F800454E41424C4544004E52465F4552524FD7
:10BA0800525F494F5F50454E44494E47004E52469B
:10BA18005F4552524F525F4452565F5457495F45F3
:10BA280052525F4F56455252554E004E52465F4550
:10BA380052524F525F4452565F5457495F455252D3
:10BA48005F414E41434B004E52465F4552524F5262
:10BA58005F4452565F5457495F4552525F444E41C6
:10BA6800434B004E52465F4552524F525F424C453F
:10BA78005F495053505F52585F504B545F54525572
:10BA88004E4341544544004E52465F4552524F5230
:10BA98005F424C455F495053505F4348414E4E45C5
:10BAA8004C5F414C52454144595F455849535453A2
:10BAB800004E52465F4552524F525F424C455F49D5
:10BAC8005053505F4C494E4B5F444953434F4E4E81
